{
  "address": "0xE8fF069b5f0660ECa6211Ef654401D777c8F08d3",
  "abi": [
    {
      "constant": true,
      "inputs": [],
      "name": "agentBase",
      "outputs": [
        {
          "name": "",
          "type": "address"
        }
      ],
      "payable": false,
      "stateMutability": "view",
      "type": "function"
    },
    {
      "constant": true,
      "inputs": [
        {
          "name": "id",
          "type": "uint256"
        }
      ],
      "name": "getDAO",
      "outputs": [
        {
          "name": "aragonId",
          "type": "string"
        },
        {
          "name": "kernel",
          "type": "address"
        },
        {
          "name": "acl",
          "type": "address"
        },
        {
          "name": "agent",
          "type": "address"
        },
        {
          "name": "voting",
          "type": "address"
        },
        {
          "name": "forwarder",
          "type": "address"
        },
        {
          "name": "token",
          "type": "address"
        }
      ],
      "payable": false,
      "stateMutability": "view",
      "type": "function"
    },
    {
      "constant": true,
      "inputs": [],
      "name": "votingBase",
      "outputs": [
        {
          "name": "",
          "type": "address"
        }
      ],
      "payable": false,
      "stateMutability": "view",
      "type": "function"
    },
    {
      "constant": false,
      "inputs": [
        {
          "name": "_token",
          "type": "address"
        },
        {
          "name": "_id",
          "type": "string"
        }
      ],
      "name": "newDAO",
      "outputs": [],
      "payable": false,
      "stateMutability": "nonpayable",
      "type": "function"
    },
    {
      "constant": false,
      "inputs": [
        {
          "name": "_token",
          "type": "address"
        },
        {
          "name": "_id",
          "type": "string"
        },
        {
          "name": "_votingSettings",
          "type": "uint64[3]"
        }
      ],
      "name": "newDAO",
      "outputs": [],
      "payable": false,
      "stateMutability": "nonpayable",
      "type": "function"
    },
    {
      "constant": true,
      "inputs": [],
      "name": "votesForwarderBase",
      "outputs": [
        {
          "name": "",
          "type": "address"
        }
      ],
      "payable": false,
      "stateMutability": "view",
      "type": "function"
    },
    {
      "constant": true,
      "inputs": [],
      "name": "daoId",
      "outputs": [
        {
          "name": "",
          "type": "uint256"
        }
      ],
      "payable": false,
      "stateMutability": "view",
      "type": "function"
    },
    {
      "inputs": [
        {
          "name": "_votingBase",
          "type": "address"
        },
        {
          "name": "_votesForwarderBase",
          "type": "address"
        },
        {
          "name": "_agentBase",
          "type": "address"
        },
        {
          "name": "_daoFactory",
          "type": "address"
        },
        {
          "name": "_ens",
          "type": "address"
        },
        {
          "name": "_aragonID",
          "type": "address"
        }
      ],
      "payable": false,
      "stateMutability": "nonpayable",
      "type": "constructor"
    },
    {
      "anonymous": false,
      "inputs": [
        {
          "indexed": false,
          "name": "dao",
          "type": "address"
        }
      ],
      "name": "SetupDao",
      "type": "event"
    },
    {
      "anonymous": false,
      "inputs": [
        {
          "indexed": false,
          "name": "appProxy",
          "type": "address"
        },
        {
          "indexed": false,
          "name": "appId",
          "type": "bytes32"
        }
      ],
      "name": "InstalledApp",
      "type": "event"
    },
    {
      "anonymous": false,
      "inputs": [
        {
          "indexed": false,
          "name": "dao",
          "type": "address"
        },
        {
          "indexed": false,
          "name": "acl",
          "type": "address"
        },
        {
          "indexed": false,
          "name": "agent",
          "type": "address"
        },
        {
          "indexed": false,
          "name": "voting",
          "type": "address"
        },
        {
          "indexed": false,
          "name": "votesForwarder",
          "type": "address"
        }
      ],
      "name": "CompleteDAO",
      "type": "event"
    }
  ],
  "transactionHash": "0x9a88bf03caec56163d4457b95262ad1b56377479434ecc3d56b235f1256b0f1a",
  "args": [
    "0x1b35798D90bA88aC2131Efb5694F2118C0075dDA",
    "0x18AE4B8dB687fC2BD9266378cc6E6bf8E7e7Df8D",
    "0xCf3f2c6b03295CF2C4E6C732d5c59576C1FF8bA7",
    "0xa48e321d8ebab7ccd52503d630c894b62a2f639b",
    "0x431f0eed904590b176f9ff8c36a1c4ff0ee9b982",
    "0xb0cec6f20ea617d0cdefef6521aad99d21876ad5"
  ],
  "numDeployments": 2,
  "solcInputHash": "715002c95ee264b76bfea230df9b4146",
  "bytecode": "0x60806040527f83db27ec048876d414097dca45d6d5aebef29349eb9e8634f31d32595f5307796000557fbb8e3a480e6426147fffada9d3aae63d7757e5fea58ece97b535c7b021badc946001557f9ac98dc5f995bf0211ed589ef022719d1487e5cb2bab505676f0d084c07cf89a60025534801561007c57600080fd5b5060405160c080611e4283398101604090815281516020830151918301516060840151608085015160a09095015160038054600160a060020a0319908116600160a060020a0398891617909155600580548216928816929092179091556004805482169287169290921790915560068054821693861693909317909255600780548316938516939093179092556008805490911692909116919091179055611d19806101296000396000f3006080604052600436106100825763ffffffff7c01000000000000000000000000000000000000000000000000000000006000350416632b0ea80481146100875780635a29426c146100c557806363bf7135146101a457806372af8193146101b9578063b4e0bdef146101f5578063bf53b5e11461028f578063cac2699b146102a4575b600080fd5b34801561009357600080fd5b5061009c6102cb565b6040805173ffffffffffffffffffffffffffffffffffffffff9092168252519081900360200190f35b3480156100d157600080fd5b506100dd6004356102e7565b6040805173ffffffffffffffffffffffffffffffffffffffff808916602080840191909152888216938301939093528681166060830152858116608083015284811660a0830152831660c082015260e08082528951908201528851909182916101008301918b019080838360005b8381101561016357818101518382015260200161014b565b50505050905090810190601f1680156101905780820380516001836020036101000a031916815260200191505b509850505050505050505060405180910390f35b3480156101b057600080fd5b5061009c6104a1565b3480156101c557600080fd5b506101f36004803573ffffffffffffffffffffffffffffffffffffffff1690602480359081019101356104bd565b005b34801561020157600080fd5b5060408051602060046024803582810135601f81018590048502860185019096528585526101f395833573ffffffffffffffffffffffffffffffffffffffff1695369560449491939091019190819084018382808284375050604080516060818101909252959897968181019695509350600392508491508390808284375093965061054095505050505050565b34801561029b57600080fd5b5061009c611151565b3480156102b057600080fd5b506102b961116d565b60408051918252519081900360200190f35b60085473ffffffffffffffffffffffffffffffffffffffff1681565b6000818152600a602090815260408083208054825160026001831615610100027fffffffffffffffffffffffffffffffffffffffffffffffffffffffffffffffff0190921691909104601f8101859004850282018501909352828152606094938493849384938493849383918301828280156103a45780601f10610379576101008083540402835291602001916103a4565b820191906000526020600020905b81548152906001019060200180831161038757829003601f168201915b505050505097508060010160009054906101000a900473ffffffffffffffffffffffffffffffffffffffff1696508060020160009054906101000a900473ffffffffffffffffffffffffffffffffffffffff1695508060030160009054906101000a900473ffffffffffffffffffffffffffffffffffffffff1694508060040160009054906101000a900473ffffffffffffffffffffffffffffffffffffffff1693508060050160009054906101000a900473ffffffffffffffffffffffffffffffffffffffff1692508060060160009054906101000a900473ffffffffffffffffffffffffffffffffffffffff16915050919395979092949650565b60065473ffffffffffffffffffffffffffffffffffffffff1681565b604080516020601f84018190048102820181019092528281526706f05b59d3b200009166b1a2bc2ec50000916203f48091610538918891889088908190840183828082843750506040805160608101825267ffffffffffffffff808d1682528b811660208301528a1691810191909152935061054092505050565b505050505050565b60048054604080517f21687444000000000000000000000000000000000000000000000000000000008152309381019390935251600092839283928392839273ffffffffffffffffffffffffffffffffffffffff169163216874449160248082019260209290919082900301818787803b1580156105bd57600080fd5b505af11580156105d1573d6000803e3d6000fd5b505050506040513d60208110156105e757600080fd5b5051604080517fde287359000000000000000000000000000000000000000000000000000000008152905191965073ffffffffffffffffffffffffffffffffffffffff87169163de287359916004808201926020929091908290030181600087803b15801561065557600080fd5b505af1158015610669573d6000803e3d6000fd5b505050506040513d602081101561067f57600080fd5b5051604080517f8ea8dc9d000000000000000000000000000000000000000000000000000000008152905191955073ffffffffffffffffffffffffffffffffffffffff8087169263be0384789230928a9290831691638ea8dc9d9160048083019260209291908290030181600087803b1580156106fb57600080fd5b505af115801561070f573d6000803e3d6000fd5b505050506040513d602081101561072557600080fd5b5051604080517c010000000000000000000000000000000000000000000000000000000063ffffffff871602815273ffffffffffffffffffffffffffffffffffffffff948516600482015292909316602483015260448201523060648201529051608480830192600092919082900301818387803b1580156107a657600080fd5b505af11580156107ba573d6000803e3d6000fd5b505050506107c785611173565b92506107d485898861137f565b91506107e0858961153b565b90508373ffffffffffffffffffffffffffffffffffffffff1663be03847883848573ffffffffffffffffffffffffffffffffffffffff16633c624c756040518163ffffffff167c0100000000000000000000000000000000000000000000000000000000028152600401602060405180830381600087803b15801561086457600080fd5b505af1158015610878573d6000803e3d6000fd5b505050506040513d602081101561088e57600080fd5b5051604080517c010000000000000000000000000000000000000000000000000000000063ffffffff871602815273ffffffffffffffffffffffffffffffffffffffff94851660048201529284166024840152604483019190915291861660648201529051608480830192600092919082900301818387803b15801561091357600080fd5b505af1158015610927573d6000803e3d6000fd5b505050508373ffffffffffffffffffffffffffffffffffffffff1663be03847883848573ffffffffffffffffffffffffffffffffffffffff166362de7e5a6040518163ffffffff167c0100000000000000000000000000000000000000000000000000000000028152600401602060405180830381600087803b1580156109ad57600080fd5b505af11580156109c1573d6000803e3d6000fd5b505050506040513d60208110156109d757600080fd5b5051604080517c010000000000000000000000000000000000000000000000000000000063ffffffff871602815273ffffffffffffffffffffffffffffffffffffffff94851660048201529284166024840152604483019190915291861660648201529051608480830192600092919082900301818387803b158015610a5c57600080fd5b505af1158015610a70573d6000803e3d6000fd5b505050508373ffffffffffffffffffffffffffffffffffffffff1663be03847882848573ffffffffffffffffffffffffffffffffffffffff1663be2c64d46040518163ffffffff167c0100000000000000000000000000000000000000000000000000000000028152600401602060405180830381600087803b158015610af657600080fd5b505af1158015610b0a573d6000803e3d6000fd5b505050506040513d6020811015610b2057600080fd5b5051604080517c010000000000000000000000000000000000000000000000000000000063ffffffff871602815273ffffffffffffffffffffffffffffffffffffffff94851660048201529284166024840152604483019190915291861660648201529051608480830192600092919082900301818387803b158015610ba557600080fd5b505af1158015610bb9573d6000803e3d6000fd5b505050508373ffffffffffffffffffffffffffffffffffffffff1663be03847883858673ffffffffffffffffffffffffffffffffffffffff16635fa5e4e66040518163ffffffff167c0100000000000000000000000000000000000000000000000000000000028152600401602060405180830381600087803b158015610c3f57600080fd5b505af1158015610c53573d6000803e3d6000fd5b505050506040513d6020811015610c6957600080fd5b5051604080517c010000000000000000000000000000000000000000000000000000000063ffffffff871602815273ffffffffffffffffffffffffffffffffffffffff94851660048201529284166024840152604483019190915291861660648201529051608480830192600092919082900301818387803b158015610cee57600080fd5b505af1158015610d02573d6000803e3d6000fd5b505050508373ffffffffffffffffffffffffffffffffffffffff1663be03847883858673ffffffffffffffffffffffffffffffffffffffff1663368c3c346040518163ffffffff167c0100000000000000000000000000000000000000000000000000000000028152600401602060405180830381600087803b158015610d8857600080fd5b505af1158015610d9c573d6000803e3d6000fd5b505050506040513d6020811015610db257600080fd5b5051604080517c010000000000000000000000000000000000000000000000000000000063ffffffff871602815273ffffffffffffffffffffffffffffffffffffffff94851660048201529284166024840152604483019190915291861660648201529051608480830192600092919082900301818387803b158015610e3757600080fd5b505af1158015610e4b573d6000803e3d6000fd5b505050508373ffffffffffffffffffffffffffffffffffffffff1663be0384786000838473ffffffffffffffffffffffffffffffffffffffff1663cb668ec86040518163ffffffff167c0100000000000000000000000000000000000000000000000000000000028152600401602060405180830381600087803b158015610ed257600080fd5b505af1158015610ee6573d6000803e3d6000fd5b505050506040513d6020811015610efc57600080fd5b5051604080517c010000000000000000000000000000000000000000000000000000000063ffffffff871602815273ffffffffffffffffffffffffffffffffffffffff9485166004820152929093166024830152604482015260006064820181905291516084808301939282900301818387803b158015610f7c57600080fd5b505af1158015610f90573d6000803e3d6000fd5b50505050610f9f8583846116cf565b610fa987866118c2565b6040805160e08101825288815273ffffffffffffffffffffffffffffffffffffffff808816602080840191909152878216838501528682166060840152858216608084015284821660a0840152908b1660c08301526009546000908152600a82529290922081518051929391926110239284920190611c52565b50602082810151600183810180547fffffffffffffffffffffffff000000000000000000000000000000000000000090811673ffffffffffffffffffffffffffffffffffffffff9485161790915560408087015160028701805484169186169190911790556060808801516003880180548516918716919091179055608080890151600489018054861691881691909117905560a0808a015160058a018054871691891691909117905560c09099015160069098018054909416978616979097179092556009805490930190925581518b841681528a84169481019490945288831684830152878316908401529085169282019290925290517f13c9f0d046ea61d3735d697d30734cb27c5f45e1440fa7fe84c3e862310e1b6b929181900390910190a15050505050505050565b60075473ffffffffffffffffffffffffffffffffffffffff1681565b60095481565b604080516004808252602480830184526020830180517bffffffffffffffffffffffffffffffffffffffffffffffffffffffff167f8129fc1c0000000000000000000000000000000000000000000000000000000017815260025460085495517f397edd4100000000000000000000000000000000000000000000000000000000815293840181815273ffffffffffffffffffffffffffffffffffffffff9687169385018490526001606486018190526080604487019081528751608488015287516000998a98908c169763397edd419790958b95949093909260a40191908083838e5b8381101561126f578181015183820152602001611257565b50505050905090810190601f16801561129c5780820380516001836020036101000a031916815260200191505b5095505050505050602060405180830381600087803b1580156112be57600080fd5b505af11580156112d2573d6000803e3d6000fd5b505050506040513d60208110156112e857600080fd5b5051600254604080517f8c61757d00000000000000000000000000000000000000000000000000000000815260048101929092525191925073ffffffffffffffffffffffffffffffffffffffff861691638c61757d9160248082019260009290919082900301818387803b15801561135f57600080fd5b505af1158015611373573d6000803e3d6000fd5b50929695505050505050565b60008054600654604080517f80cd5ac3000000000000000000000000000000000000000000000000000000008152600481019390935273ffffffffffffffffffffffffffffffffffffffff9182166024840152518392918716916380cd5ac391604480830192602092919082900301818787803b1580156113ff57600080fd5b505af1158015611413573d6000803e3d6000fd5b505050506040513d602081101561142957600080fd5b50518351602085015160408087015181517fdf3d330500000000000000000000000000000000000000000000000000000000815273ffffffffffffffffffffffffffffffffffffffff8a8116600483015267ffffffffffffffff95861660248301529385166044820152931660648401525192935083169163df3d33059160848082019260009290919082900301818387803b1580156114c857600080fd5b505af11580156114dc573d6000803e3d6000fd5b50506000546040805173ffffffffffffffffffffffffffffffffffffffff86168152602081019290925280517f2b183a501d4b1bbd30e6611ebac40ab18a00390e6c6bed324bf92a265c9ce6e3945091829003019150a1949350505050565b600154600754604080517f80cd5ac3000000000000000000000000000000000000000000000000000000008152600481019390935273ffffffffffffffffffffffffffffffffffffffff91821660248401525160009283928616916380cd5ac39160448082019260209290919082900301818787803b1580156115bd57600080fd5b505af11580156115d1573d6000803e3d6000fd5b505050506040513d60208110156115e757600080fd5b5051604080517fc4d66de800000000000000000000000000000000000000000000000000000000815273ffffffffffffffffffffffffffffffffffffffff868116600483015291519293509083169163c4d66de89160248082019260009290919082900301818387803b15801561165d57600080fd5b505af1158015611671573d6000803e3d6000fd5b50506001546040805173ffffffffffffffffffffffffffffffffffffffff86168152602081019290925280517f2b183a501d4b1bbd30e6611ebac40ab18a00390e6c6bed324bf92a265c9ce6e3945091829003019150a19392505050565b60008373ffffffffffffffffffffffffffffffffffffffff1663de2873596040518163ffffffff167c0100000000000000000000000000000000000000000000000000000000028152600401602060405180830381600087803b15801561173557600080fd5b505af1158015611749573d6000803e3d6000fd5b505050506040513d602081101561175f57600080fd5b5051604080517f8ea8dc9d00000000000000000000000000000000000000000000000000000000815290519192506118099183918791879173ffffffffffffffffffffffffffffffffffffffff841691638ea8dc9d916004808201926020929091908290030181600087803b1580156117d757600080fd5b505af11580156117eb573d6000803e3d6000fd5b505050506040513d602081101561180157600080fd5b505186611a85565b6118738182858473ffffffffffffffffffffffffffffffffffffffff16633d6ab68f6040518163ffffffff167c0100000000000000000000000000000000000000000000000000000000028152600401602060405180830381600087803b1580156117d757600080fd5b6040805173ffffffffffffffffffffffffffffffffffffffff8616815290517f17592627a66846ce06d92a1708275bc653b2a3f34aec855584b819872a8ba4139181900360200190a150505050565b600554604051835173ffffffffffffffffffffffffffffffffffffffff9092169163d22057a99185916020918201918291908401908083835b6020831061193857805182527fffffffffffffffffffffffffffffffffffffffffffffffffffffffffffffffe090920191602091820191016118fb565b6001836020036101000a0380198251168184511680821785525050505050509050019150506040516020818303038152906040526040518082805190602001908083835b602083106119b957805182527fffffffffffffffffffffffffffffffffffffffffffffffffffffffffffffffe0909201916020918201910161197c565b5181516020939093036101000a7fffffffffffffffffffffffffffffffffffffffffffffffffffffffffffffffff01801990911692169190911790526040805191909301819003812063ffffffff87167c0100000000000000000000000000000000000000000000000000000000028252600482015273ffffffffffffffffffffffffffffffffffffffff88166024820152915160448084019550600094509092839003019050818387803b158015611a7157600080fd5b505af1158015610538573d6000803e3d6000fd5b604080517f0a8ed3db00000000000000000000000000000000000000000000000000000000815273ffffffffffffffffffffffffffffffffffffffff8581166004830152868116602483015260448201859052915191871691630a8ed3db9160648082019260009290919082900301818387803b158015611b0557600080fd5b505af1158015611b19573d6000803e3d6000fd5b5050604080517f9d0effdb00000000000000000000000000000000000000000000000000000000815230600482015273ffffffffffffffffffffffffffffffffffffffff88811660248301526044820187905291519189169350639d0effdb925060648082019260009290919082900301818387803b158015611b9b57600080fd5b505af1158015611baf573d6000803e3d6000fd5b5050604080517fafd925df00000000000000000000000000000000000000000000000000000000815273ffffffffffffffffffffffffffffffffffffffff85811660048301528881166024830152604482018790529151918916935063afd925df925060648082019260009290919082900301818387803b158015611c3357600080fd5b505af1158015611c47573d6000803e3d6000fd5b505050505050505050565b828054600181600116156101000203166002900490600052602060002090601f016020900481019282601f10611c9357805160ff1916838001178555611cc0565b82800160010185558215611cc0579182015b82811115611cc0578251825591602001919060010190611ca5565b50611ccc929150611cd0565b5090565b611cea91905b80821115611ccc5760008155600101611cd6565b905600a165627a7a723058205d87abac061316e01b917fc1eb763f7b2ba2b4445805000d7a238eb6f6ca21a20029",
  "devdoc": {
    "methods": {}
  },
  "userdoc": {
    "methods": {}
  }
}