{
  "address": "0x376777A9056BF77594F8d0e6b4a6b16436df2699",
  "abi": [
    {
      "inputs": [],
      "stateMutability": "nonpayable",
      "type": "constructor"
    },
    {
      "inputs": [],
      "name": "BlockNumberInvalid",
      "type": "error"
    },
    {
      "inputs": [],
      "name": "Initialized",
      "type": "error"
    },
    {
      "inputs": [],
      "name": "NotOwnerOrApproved",
      "type": "error"
    },
    {
      "inputs": [],
      "name": "SignatureExpired",
      "type": "error"
    },
    {
      "inputs": [],
      "name": "SignatureInvalid",
      "type": "error"
    },
    {
      "inputs": [],
      "name": "TokenDoesNotExist",
      "type": "error"
    },
    {
      "inputs": [],
      "name": "ZeroSpender",
      "type": "error"
    },
    {
      "anonymous": false,
      "inputs": [
        {
          "indexed": true,
          "internalType": "address",
          "name": "owner",
          "type": "address"
        },
        {
          "indexed": true,
          "internalType": "address",
          "name": "approved",
          "type": "address"
        },
        {
          "indexed": true,
          "internalType": "uint256",
          "name": "tokenId",
          "type": "uint256"
        }
      ],
      "name": "Approval",
      "type": "event"
    },
    {
      "anonymous": false,
      "inputs": [
        {
          "indexed": true,
          "internalType": "address",
          "name": "owner",
          "type": "address"
        },
        {
          "indexed": true,
          "internalType": "address",
          "name": "operator",
          "type": "address"
        },
        {
          "indexed": false,
          "internalType": "bool",
          "name": "approved",
          "type": "bool"
        }
      ],
      "name": "ApprovalForAll",
      "type": "event"
    },
    {
      "anonymous": false,
      "inputs": [
        {
          "indexed": true,
          "internalType": "address",
          "name": "from",
          "type": "address"
        },
        {
          "indexed": true,
          "internalType": "address",
          "name": "to",
          "type": "address"
        },
        {
          "indexed": true,
          "internalType": "uint256",
          "name": "tokenId",
          "type": "uint256"
        }
      ],
      "name": "Transfer",
      "type": "event"
    },
    {
      "inputs": [],
      "name": "HUB",
      "outputs": [
        {
          "internalType": "address",
          "name": "",
          "type": "address"
        }
      ],
      "stateMutability": "view",
      "type": "function"
    },
    {
      "inputs": [
        {
          "internalType": "address",
          "name": "to",
          "type": "address"
        },
        {
          "internalType": "uint256",
          "name": "tokenId",
          "type": "uint256"
        }
      ],
      "name": "approve",
      "outputs": [],
      "stateMutability": "nonpayable",
      "type": "function"
    },
    {
      "inputs": [
        {
          "internalType": "address",
          "name": "owner",
          "type": "address"
        }
      ],
      "name": "balanceOf",
      "outputs": [
        {
          "internalType": "uint256",
          "name": "",
          "type": "uint256"
        }
      ],
      "stateMutability": "view",
      "type": "function"
    },
    {
      "inputs": [
        {
          "internalType": "uint256",
          "name": "tokenId",
          "type": "uint256"
        }
      ],
      "name": "burn",
      "outputs": [],
      "stateMutability": "nonpayable",
      "type": "function"
    },
    {
      "inputs": [
        {
          "internalType": "uint256",
          "name": "tokenId",
          "type": "uint256"
        },
        {
          "components": [
            {
              "internalType": "uint8",
              "name": "v",
              "type": "uint8"
            },
            {
              "internalType": "bytes32",
              "name": "r",
              "type": "bytes32"
            },
            {
              "internalType": "bytes32",
              "name": "s",
              "type": "bytes32"
            },
            {
              "internalType": "uint256",
              "name": "deadline",
              "type": "uint256"
            }
          ],
          "internalType": "struct DataTypes.EIP712Signature",
          "name": "sig",
          "type": "tuple"
        }
      ],
      "name": "burnWithSig",
      "outputs": [],
      "stateMutability": "nonpayable",
      "type": "function"
    },
    {
      "inputs": [
        {
          "internalType": "address",
          "name": "delegatee",
          "type": "address"
        }
      ],
      "name": "delegate",
      "outputs": [],
      "stateMutability": "nonpayable",
      "type": "function"
    },
    {
      "inputs": [
        {
          "internalType": "address",
          "name": "delegator",
          "type": "address"
        },
        {
          "internalType": "address",
          "name": "delegatee",
          "type": "address"
        },
        {
          "components": [
            {
              "internalType": "uint8",
              "name": "v",
              "type": "uint8"
            },
            {
              "internalType": "bytes32",
              "name": "r",
              "type": "bytes32"
            },
            {
              "internalType": "bytes32",
              "name": "s",
              "type": "bytes32"
            },
            {
              "internalType": "uint256",
              "name": "deadline",
              "type": "uint256"
            }
          ],
          "internalType": "struct DataTypes.EIP712Signature",
          "name": "sig",
          "type": "tuple"
        }
      ],
      "name": "delegateBySig",
      "outputs": [],
      "stateMutability": "nonpayable",
      "type": "function"
    },
    {
      "inputs": [
        {
          "internalType": "uint256",
          "name": "tokenId",
          "type": "uint256"
        }
      ],
      "name": "exists",
      "outputs": [
        {
          "internalType": "bool",
          "name": "",
          "type": "bool"
        }
      ],
      "stateMutability": "view",
      "type": "function"
    },
    {
      "inputs": [
        {
          "internalType": "uint256",
          "name": "tokenId",
          "type": "uint256"
        }
      ],
      "name": "getApproved",
      "outputs": [
        {
          "internalType": "address",
          "name": "",
          "type": "address"
        }
      ],
      "stateMutability": "view",
      "type": "function"
    },
    {
      "inputs": [
        {
          "internalType": "uint256",
          "name": "blockNumber",
          "type": "uint256"
        }
      ],
      "name": "getDelegatedSupplyByBlockNumber",
      "outputs": [
        {
          "internalType": "uint256",
          "name": "",
          "type": "uint256"
        }
      ],
      "stateMutability": "view",
      "type": "function"
    },
    {
      "inputs": [],
      "name": "getDomainSeparator",
      "outputs": [
        {
          "internalType": "bytes32",
          "name": "",
          "type": "bytes32"
        }
      ],
      "stateMutability": "view",
      "type": "function"
    },
    {
      "inputs": [
        {
          "internalType": "address",
          "name": "user",
          "type": "address"
        },
        {
          "internalType": "uint256",
          "name": "blockNumber",
          "type": "uint256"
        }
      ],
      "name": "getPowerByBlockNumber",
      "outputs": [
        {
          "internalType": "uint256",
          "name": "",
          "type": "uint256"
        }
      ],
      "stateMutability": "view",
      "type": "function"
    },
    {
      "inputs": [
        {
          "internalType": "uint256",
          "name": "profileId",
          "type": "uint256"
        }
      ],
      "name": "initialize",
      "outputs": [],
      "stateMutability": "nonpayable",
      "type": "function"
    },
    {
      "inputs": [
        {
          "internalType": "address",
          "name": "owner",
          "type": "address"
        },
        {
          "internalType": "address",
          "name": "operator",
          "type": "address"
        }
      ],
      "name": "isApprovedForAll",
      "outputs": [
        {
          "internalType": "bool",
          "name": "",
          "type": "bool"
        }
      ],
      "stateMutability": "view",
      "type": "function"
    },
    {
      "inputs": [
        {
          "internalType": "address",
          "name": "to",
          "type": "address"
        }
      ],
      "name": "mint",
      "outputs": [
        {
          "internalType": "uint256",
          "name": "",
          "type": "uint256"
        }
      ],
      "stateMutability": "nonpayable",
      "type": "function"
    },
    {
      "inputs": [
        {
          "internalType": "uint256",
          "name": "tokenId",
          "type": "uint256"
        }
      ],
      "name": "mintTimestampOf",
      "outputs": [
        {
          "internalType": "uint256",
          "name": "",
          "type": "uint256"
        }
      ],
      "stateMutability": "view",
      "type": "function"
    },
    {
      "inputs": [],
      "name": "name",
      "outputs": [
        {
          "internalType": "string",
          "name": "",
          "type": "string"
        }
      ],
      "stateMutability": "view",
      "type": "function"
    },
    {
      "inputs": [
        {
          "internalType": "uint256",
          "name": "tokenId",
          "type": "uint256"
        }
      ],
      "name": "ownerOf",
      "outputs": [
        {
          "internalType": "address",
          "name": "",
          "type": "address"
        }
      ],
      "stateMutability": "view",
      "type": "function"
    },
    {
      "inputs": [
        {
          "internalType": "address",
          "name": "spender",
          "type": "address"
        },
        {
          "internalType": "uint256",
          "name": "tokenId",
          "type": "uint256"
        },
        {
          "components": [
            {
              "internalType": "uint8",
              "name": "v",
              "type": "uint8"
            },
            {
              "internalType": "bytes32",
              "name": "r",
              "type": "bytes32"
            },
            {
              "internalType": "bytes32",
              "name": "s",
              "type": "bytes32"
            },
            {
              "internalType": "uint256",
              "name": "deadline",
              "type": "uint256"
            }
          ],
          "internalType": "struct DataTypes.EIP712Signature",
          "name": "sig",
          "type": "tuple"
        }
      ],
      "name": "permit",
      "outputs": [],
      "stateMutability": "nonpayable",
      "type": "function"
    },
    {
      "inputs": [
        {
          "internalType": "address",
          "name": "owner",
          "type": "address"
        },
        {
          "internalType": "address",
          "name": "operator",
          "type": "address"
        },
        {
          "internalType": "bool",
          "name": "approved",
          "type": "bool"
        },
        {
          "components": [
            {
              "internalType": "uint8",
              "name": "v",
              "type": "uint8"
            },
            {
              "internalType": "bytes32",
              "name": "r",
              "type": "bytes32"
            },
            {
              "internalType": "bytes32",
              "name": "s",
              "type": "bytes32"
            },
            {
              "internalType": "uint256",
              "name": "deadline",
              "type": "uint256"
            }
          ],
          "internalType": "struct DataTypes.EIP712Signature",
          "name": "sig",
          "type": "tuple"
        }
      ],
      "name": "permitForAll",
      "outputs": [],
      "stateMutability": "nonpayable",
      "type": "function"
    },
    {
      "inputs": [
        {
          "internalType": "address",
          "name": "from",
          "type": "address"
        },
        {
          "internalType": "address",
          "name": "to",
          "type": "address"
        },
        {
          "internalType": "uint256",
          "name": "tokenId",
          "type": "uint256"
        }
      ],
      "name": "safeTransferFrom",
      "outputs": [],
      "stateMutability": "nonpayable",
      "type": "function"
    },
    {
      "inputs": [
        {
          "internalType": "address",
          "name": "from",
          "type": "address"
        },
        {
          "internalType": "address",
          "name": "to",
          "type": "address"
        },
        {
          "internalType": "uint256",
          "name": "tokenId",
          "type": "uint256"
        },
        {
          "internalType": "bytes",
          "name": "_data",
          "type": "bytes"
        }
      ],
      "name": "safeTransferFrom",
      "outputs": [],
      "stateMutability": "nonpayable",
      "type": "function"
    },
    {
      "inputs": [
        {
          "internalType": "address",
          "name": "operator",
          "type": "address"
        },
        {
          "internalType": "bool",
          "name": "approved",
          "type": "bool"
        }
      ],
      "name": "setApprovalForAll",
      "outputs": [],
      "stateMutability": "nonpayable",
      "type": "function"
    },
    {
      "inputs": [
        {
          "internalType": "address",
          "name": "",
          "type": "address"
        }
      ],
      "name": "sigNonces",
      "outputs": [
        {
          "internalType": "uint256",
          "name": "",
          "type": "uint256"
        }
      ],
      "stateMutability": "view",
      "type": "function"
    },
    {
      "inputs": [
        {
          "internalType": "bytes4",
          "name": "interfaceId",
          "type": "bytes4"
        }
      ],
      "name": "supportsInterface",
      "outputs": [
        {
          "internalType": "bool",
          "name": "",
          "type": "bool"
        }
      ],
      "stateMutability": "view",
      "type": "function"
    },
    {
      "inputs": [],
      "name": "symbol",
      "outputs": [
        {
          "internalType": "string",
          "name": "",
          "type": "string"
        }
      ],
      "stateMutability": "view",
      "type": "function"
    },
    {
      "inputs": [
        {
          "internalType": "uint256",
          "name": "index",
          "type": "uint256"
        }
      ],
      "name": "tokenByIndex",
      "outputs": [
        {
          "internalType": "uint256",
          "name": "",
          "type": "uint256"
        }
      ],
      "stateMutability": "view",
      "type": "function"
    },
    {
      "inputs": [
        {
          "internalType": "uint256",
          "name": "tokenId",
          "type": "uint256"
        }
      ],
      "name": "tokenDataOf",
      "outputs": [
        {
          "components": [
            {
              "internalType": "address",
              "name": "owner",
              "type": "address"
            },
            {
              "internalType": "uint96",
              "name": "mintTimestamp",
              "type": "uint96"
            }
          ],
          "internalType": "struct IERC721Time.TokenData",
          "name": "",
          "type": "tuple"
        }
      ],
      "stateMutability": "view",
      "type": "function"
    },
    {
      "inputs": [
        {
          "internalType": "address",
          "name": "owner",
          "type": "address"
        },
        {
          "internalType": "uint256",
          "name": "index",
          "type": "uint256"
        }
      ],
      "name": "tokenOfOwnerByIndex",
      "outputs": [
        {
          "internalType": "uint256",
          "name": "",
          "type": "uint256"
        }
      ],
      "stateMutability": "view",
      "type": "function"
    },
    {
      "inputs": [
        {
          "internalType": "uint256",
          "name": "tokenId",
          "type": "uint256"
        }
      ],
      "name": "tokenURI",
      "outputs": [
        {
          "internalType": "string",
          "name": "",
          "type": "string"
        }
      ],
      "stateMutability": "view",
      "type": "function"
    },
    {
      "inputs": [],
      "name": "totalSupply",
      "outputs": [
        {
          "internalType": "uint256",
          "name": "",
          "type": "uint256"
        }
      ],
      "stateMutability": "view",
      "type": "function"
    },
    {
      "inputs": [
        {
          "internalType": "address",
          "name": "from",
          "type": "address"
        },
        {
          "internalType": "address",
          "name": "to",
          "type": "address"
        },
        {
          "internalType": "uint256",
          "name": "tokenId",
          "type": "uint256"
        }
      ],
      "name": "transferFrom",
      "outputs": [],
      "stateMutability": "nonpayable",
      "type": "function"
    }
  ],
  "transactionHash": "0xa9cab0066585c336bae9fadcf3a6271e7362d6d4d05d5dd60fdef03f297a8a2b",
  "args": [],
  "numDeployments": 1,
  "solcInputHash": "9c0d46321f1cdde8d30917d7642b05a6",
  "bytecode": "0x60806040523480156200001157600080fd5b506200001d3362000024565b5062000911565b60128054600101908190556000906200003e838262000044565b92915050565b6001600160a01b038216620000a05760405162461bcd60e51b815260206004820181905260248201527f4552433732313a206d696e7420746f20746865207a65726f206164647265737360448201526064015b60405180910390fd5b6000818152600260205260409020546001600160a01b031615620001075760405162461bcd60e51b815260206004820152601c60248201527f4552433732313a20746f6b656e20616c7265616479206d696e74656400000000604482015260640162000097565b6200011560008383620001a1565b6001600160a01b038216600090815260036020526040812080546001929062000140908490620008b0565b90915550506000818152600260205260408082206001600160a01b038516600160a01b426001600160601b031602811790915590518392907fddf252ad1be2c89b69c2b068fc378daa952ba7f163c4a11628f55a4df523b3ef908290a45050565b6001600160a01b038084166000908152600d60205260408082205485841683529120549082169116620001d782826001620001f6565b620001ef858585620003e960201b6200156b1760201c565b5050505050565b6001600160a01b0383161580620002aa576001600160a01b0384166000908152600e6020908152604080832054600c83528184206000198201855290925290912054600160801b90046001600160801b031683810362000258878285620004ca565b806001600160801b0316876001600160a01b03167fd9a6070174f4ccca76ed4896432e9a090b16e07e8fe27f275f50b33500b98e52426040516200029e91815260200190565b60405180910390a35050505b6001600160a01b03831615620003a3578015620002fb5760105460001981016000908152600f6020526040902054600160801b90046001600160801b0316838101620002f78184620005ab565b5050505b6001600160a01b0383166000908152600e6020908152604080832054600c83528184206000198201855290925290912054600160801b90046001600160801b03168381016200034c868285620004ca565b806001600160801b0316866001600160a01b03167fd9a6070174f4ccca76ed4896432e9a090b16e07e8fe27f275f50b33500b98e52426040516200039291815260200190565b60405180910390a3505050620003e3565b80620003e35760105460001981016000908152600f6020526040902054600160801b90046001600160801b0316838103620003df8184620005ab565b5050505b50505050565b620004018383836200049f60201b6200082c1760201c565b6001600160a01b0383166200045f576200045981600880546000838152600960205260408120829055600182018355919091527ff3f7a9fe364faab93b216da50a3214154f22a0a2b415b23a84c8169e8b636ee30155565b62000485565b816001600160a01b0316836001600160a01b031614620004855762000485838262000659565b6001600160a01b038216620004a4576200049f8162000706565b505050565b826001600160a01b0316826001600160a01b0316146200049f576200049f8282620007c0565b6001600160a01b0383166000908152600c602052604090204390821580159062000512575060001983016000908152602082905260409020546001600160801b038381169116145b1562000549576000198301600090815260208290526040902080546001600160801b03808716600160801b029116179055620001ef565b6040805180820182526001600160801b03808516825286811660208084019182526000888152868252858120945192518416600160801b0292909316919091179092556001600160a01b0388168152600e909152206001840190555050505050565b438115801590620005da575060001982016000908152600f60205260409020546001600160801b038281169116145b15620006105760001982016000908152600f6020526040902080546001600160801b03808616600160801b029116179055505050565b6040805180820182526001600160801b03928316815293821660208086019182526000858152600f90915291909120935190518216600160801b02911617909155600101601055565b6000600162000673846200081160201b62000d451760201c565b6200067f9190620008cb565b600083815260076020526040902054909150808214620006d3576001600160a01b03841660009081526006602090815260408083208584528252808320548484528184208190558352600790915290208190555b5060009182526007602090815260408084208490556001600160a01b039094168352600681528383209183525290812055565b6008546000906200071a90600190620008cb565b60008381526009602052604081205460088054939450909284908110620007455762000745620008e5565b906000526020600020015490508060088381548110620007695762000769620008e5565b6000918252602080832090910192909255828152600990915260408082208490558582528120556008805480620007a457620007a4620008fb565b6001900381819060005260206000200160009055905550505050565b6000620007d8836200081160201b62000d451760201c565b6001600160a01b039093166000908152600660209081526040808320868452825280832085905593825260079052919091209190915550565b60006001600160a01b0382166200087e5760405162461bcd60e51b815260206004820152602a60248201527f4552433732313a2062616c616e636520717565727920666f7220746865207a65604482015269726f206164647265737360b01b606482015260840162000097565b506001600160a01b031660009081526003602052604090205490565b634e487b7160e01b600052601160045260246000fd5b60008219821115620008c657620008c66200089a565b500190565b600082821015620008e057620008e06200089a565b500390565b634e487b7160e01b600052603260045260246000fd5b634e487b7160e01b600052603160045260246000fd5b61338a80620009216000396000f3fe608060405234801561001057600080fd5b50600436106101f05760003560e01c806370a082311161010f578063c0da9bcd116100a2578063e985e9c511610071578063e985e9c5146104e5578063ed24911d1461052e578063f990ccd714610536578063fe4b84df1461055657600080fd5b8063c0da9bcd1461045a578063c87b56dd146104ac578063dd69cdb1146104bf578063df8d8071146104d257600080fd5b806395d89b41116100de57806395d89b41146103db578063a22cb46514610414578063a4c52b8614610427578063b88d4fde1461044757600080fd5b806370a082311461038f5780637ef67f99146103a257806389028a13146103b55780638fca0d41146103c857600080fd5b806342842e0e1161018757806350ddf35c1161015657806350ddf35c146103435780635c19a95c146103565780636352211e146103695780636a6278421461037c57600080fd5b806342842e0e146102f757806342966c681461030a5780634f558e791461031d5780634f6ccce71461033057600080fd5b806318160ddd116101c357806318160ddd146102ac57806323b872dd146102be5780632c994dc8146102d15780632f745c59146102e457600080fd5b806301ffc9a7146101f557806306fdde031461021d578063081812fc1461025f578063095ea7b314610297575b600080fd5b610208610203366004612e12565b610569565b60405190151581526020015b60405180910390f35b60408051808201909152600a81527f4d6f636b466f6c6c6f770000000000000000000000000000000000000000000060208201525b6040516102149190612e9a565b61027261026d366004612ead565b6105c5565b60405173ffffffffffffffffffffffffffffffffffffffff9091168152602001610214565b6102aa6102a5366004612eef565b6106a4565b005b6008545b604051908152602001610214565b6102aa6102cc366004612f19565b610831565b6102b06102df366004612eef565b6108d2565b6102b06102f2366004612eef565b61097b565b6102aa610305366004612f19565b610a4a565b6102aa610318366004612ead565b610a65565b61020861032b366004612ead565b610ab1565b6102b061033e366004612ead565b610add565b6102b0610351366004612ead565b610b9b565b6102aa610364366004612f55565b610c71565b610272610377366004612ead565b610c7b565b6102b061038a366004612f55565b610d2d565b6102b061039d366004612f55565b610d45565b6102aa6103b0366004612f88565b610e13565b6102aa6103c3366004612fd5565b610f2c565b6102b06103d6366004612ead565b611024565b60408051808201909152600481527f4d4f434b000000000000000000000000000000000000000000000000000000006020820152610252565b6102aa61042236600461302a565b611084565b600b546102729073ffffffffffffffffffffffffffffffffffffffff1681565b6102aa61045536600461308c565b611113565b61046d610468366004612ead565b6111b5565b60408051825173ffffffffffffffffffffffffffffffffffffffff1681526020928301516bffffffffffffffffffffffff169281019290925201610214565b6102526104ba366004612ead565b6112dc565b6102aa6104cd366004613186565b611373565b6102aa6104e03660046131aa565b61140e565b6102086104f33660046131e5565b73ffffffffffffffffffffffffffffffffffffffff918216600090815260056020908152604080832093909416825291909152205460ff1690565b6102b06114b0565b6102b0610544366004612f55565b600a6020526000908152604090205481565b6102aa610564366004612ead565b6114bf565b60007fffffffff0000000000000000000000000000000000000000000000000000000082167f780e9d630000000000000000000000000000000000000000000000000000000014806105bf57506105bf82611671565b92915050565b60008181526002602052604081205473ffffffffffffffffffffffffffffffffffffffff1661067b576040517f08c379a000000000000000000000000000000000000000000000000000000000815260206004820152602c60248201527f4552433732313a20617070726f76656420717565727920666f72206e6f6e657860448201527f697374656e7420746f6b656e000000000000000000000000000000000000000060648201526084015b60405180910390fd5b5060009081526004602052604090205473ffffffffffffffffffffffffffffffffffffffff1690565b60006106af82610c7b565b90508073ffffffffffffffffffffffffffffffffffffffff168373ffffffffffffffffffffffffffffffffffffffff16141561076d576040517f08c379a000000000000000000000000000000000000000000000000000000000815260206004820152602160248201527f4552433732313a20617070726f76616c20746f2063757272656e74206f776e6560448201527f72000000000000000000000000000000000000000000000000000000000000006064820152608401610672565b3373ffffffffffffffffffffffffffffffffffffffff82161480610796575061079681336104f3565b610822576040517f08c379a000000000000000000000000000000000000000000000000000000000815260206004820152603860248201527f4552433732313a20617070726f76652063616c6c6572206973206e6f74206f7760448201527f6e6572206e6f7220617070726f76656420666f7220616c6c00000000000000006064820152608401610672565b61082c8383611754565b505050565b61083b33826117f4565b6108c7576040517f08c379a000000000000000000000000000000000000000000000000000000000815260206004820152603160248201527f4552433732313a207472616e736665722063616c6c6572206973206e6f74206f60448201527f776e6572206e6f7220617070726f7665640000000000000000000000000000006064820152608401610672565b61082c838383611960565b60004382111561090e576040517f2b23a7c000000000000000000000000000000000000000000000000000000000815260040160405180910390fd5b73ffffffffffffffffffffffffffffffffffffffff83166000908152600e6020526040902054806109435760009150506105bf565b73ffffffffffffffffffffffffffffffffffffffff84166000908152600c60205260409020610973908483611bd2565b949350505050565b600061098683610d45565b8210610a14576040517f08c379a000000000000000000000000000000000000000000000000000000000815260206004820152602b60248201527f455243373231456e756d657261626c653a206f776e657220696e646578206f7560448201527f74206f6620626f756e64730000000000000000000000000000000000000000006064820152608401610672565b5073ffffffffffffffffffffffffffffffffffffffff919091166000908152600660209081526040808320938352929052205490565b61082c83838360405180602001604052806000815250611113565b610a6f33826117f4565b610aa5576040517fdb1453ce00000000000000000000000000000000000000000000000000000000815260040160405180910390fd5b610aae81611d86565b50565b60008181526002602052604081205473ffffffffffffffffffffffffffffffffffffffff1615156105bf565b6000610ae860085490565b8210610b76576040517f08c379a000000000000000000000000000000000000000000000000000000000815260206004820152602c60248201527f455243373231456e756d657261626c653a20676c6f62616c20696e646578206f60448201527f7574206f6620626f756e647300000000000000000000000000000000000000006064820152608401610672565b60088281548110610b8957610b8961320f565b90600052602060002001549050919050565b6000818152600260205260408120547401000000000000000000000000000000000000000090046bffffffffffffffffffffffff1680610c5d576040517f08c379a000000000000000000000000000000000000000000000000000000000815260206004820152603260248201527f4552433732313a206d696e742074696d657374616d7020717565727920666f7260448201527f206e6f6e6578697374656e7420746f6b656e00000000000000000000000000006064820152608401610672565b6bffffffffffffffffffffffff1692915050565b610aae3382611e3c565b60008181526002602052604081205473ffffffffffffffffffffffffffffffffffffffff16806105bf576040517f08c379a000000000000000000000000000000000000000000000000000000000815260206004820152602960248201527f4552433732313a206f776e657220717565727920666f72206e6f6e657869737460448201527f656e7420746f6b656e00000000000000000000000000000000000000000000006064820152608401610672565b60128054600101908190556000906105bf8382611ea8565b600073ffffffffffffffffffffffffffffffffffffffff8216610dea576040517f08c379a000000000000000000000000000000000000000000000000000000000815260206004820152602a60248201527f4552433732313a2062616c616e636520717565727920666f7220746865207a6560448201527f726f2061646472657373000000000000000000000000000000000000000000006064820152608401610672565b5073ffffffffffffffffffffffffffffffffffffffff1660009081526003602052604090205490565b73ffffffffffffffffffffffffffffffffffffffff8316610e60576040517f1fac5b7400000000000000000000000000000000000000000000000000000000815260040160405180910390fd5b6000610e6b83610c7b565b73ffffffffffffffffffffffffffffffffffffffff8181166000908152600a602090815260409182902080546001810190915582517f49ecf333e5b8c95c40fdafc95c1ad136e8914a8fb55e9dc8bb01eaa83a2df9ad9281019290925292881691810191909152606080820187905260808201929092529084013560a0820152909150610f1c90610f159060c0015b60405160208183030381529060405280519060200120612077565b82846120fa565b610f268484611754565b50505050565b73ffffffffffffffffffffffffffffffffffffffff8316610f79576040517f1fac5b7400000000000000000000000000000000000000000000000000000000815260040160405180910390fd5b73ffffffffffffffffffffffffffffffffffffffff8481166000818152600a602090815260409182902080546001810190915582517f47ab88482c90e4bb94b82a947ae78fa91fb25de1469ab491f4c15b9a0a2677ee9281019290925291810192909252918516606080830191909152841515608083015260a08201929092529082013560c0820152611019906110129060e001610efa565b85836120fa565b610f2684848461224f565b600043821115611060576040517f2b23a7c000000000000000000000000000000000000000000000000000000000815260040160405180910390fd5b601054806110715750600092915050565b61107d600f8483611bd2565b9392505050565b73ffffffffffffffffffffffffffffffffffffffff8216331415611104576040517f08c379a000000000000000000000000000000000000000000000000000000000815260206004820152601960248201527f4552433732313a20617070726f766520746f2063616c6c6572000000000000006044820152606401610672565b61110f33838361224f565b5050565b61111d33836117f4565b6111a9576040517f08c379a000000000000000000000000000000000000000000000000000000000815260206004820152603160248201527f4552433732313a207472616e736665722063616c6c6572206973206e6f74206f60448201527f776e6572206e6f7220617070726f7665640000000000000000000000000000006064820152608401610672565b610f26848484846122e7565b604080518082019091526000808252602082015260008281526002602052604090205473ffffffffffffffffffffffffffffffffffffffff1661127a576040517f08c379a000000000000000000000000000000000000000000000000000000000815260206004820152602e60248201527f4552433732313a20746f6b656e206461746120717565727920666f72206e6f6e60448201527f6578697374656e7420746f6b656e0000000000000000000000000000000000006064820152608401610672565b5060009081526002602090815260409182902082518084019093525473ffffffffffffffffffffffffffffffffffffffff811683527401000000000000000000000000000000000000000090046bffffffffffffffffffffffff169082015290565b60008181526002602052604090205460609073ffffffffffffffffffffffffffffffffffffffff1661133a576040517fceea21b600000000000000000000000000000000000000000000000000000000815260040160405180910390fd5b505060408051808201909152601781527f68747470733a2f2f6578616d706c652e636f6d2f4e4654000000000000000000602082015290565b600061137e83610c7b565b73ffffffffffffffffffffffffffffffffffffffff81166000908152600a602090815260409182902080546001810190915582517f108ccda6d7331b00561a3eea66a2ae331622356585681c62731e4a01aae2261a9281019290925291810186905260608082019290925290840135608082015290915061140590610f159060a001610efa565b61082c83611d86565b73ffffffffffffffffffffffffffffffffffffffff8381166000818152600a602090815260409182902080546001810190915582517fb8f190a57772800093f4e2b186099eb4f1df0ed7f5e2791e89a4a07678e0aeff928101929092529181019290925291841660608083019190915260808201929092529082013560a08201526114a69061149f9060c001610efa565b84836120fa565b61082c8383611e3c565b60006114ba61238a565b905090565b60135460ff16156114fc576040517f5daa87a000000000000000000000000000000000000000000000000000000000815260040160405180910390fd5b601380547fffffffffffffffffffffffffffffffffffffffffffffffffffffffffffffff00166001179055601181905560405181907faec15127df11a6b562c87d31bcb8f4cd2f0cf57fb9b663d6334abf41fea94d95906115609042815260200190565b60405180910390a250565b73ffffffffffffffffffffffffffffffffffffffff83166115d3576115ce81600880546000838152600960205260408120829055600182018355919091527ff3f7a9fe364faab93b216da50a3214154f22a0a2b415b23a84c8169e8b636ee30155565b611610565b8173ffffffffffffffffffffffffffffffffffffffff168373ffffffffffffffffffffffffffffffffffffffff1614611610576116108382612451565b73ffffffffffffffffffffffffffffffffffffffff82166116345761082c81612508565b8273ffffffffffffffffffffffffffffffffffffffff168273ffffffffffffffffffffffffffffffffffffffff161461082c5761082c82826125b7565b60007fffffffff0000000000000000000000000000000000000000000000000000000082167f80ac58cd00000000000000000000000000000000000000000000000000000000148061170457507fffffffff0000000000000000000000000000000000000000000000000000000082167f5b5e139f00000000000000000000000000000000000000000000000000000000145b806105bf57507f01ffc9a7000000000000000000000000000000000000000000000000000000007fffffffff000000000000000000000000000000000000000000000000000000008316146105bf565b600081815260046020526040902080547fffffffffffffffffffffffff00000000000000000000000000000000000000001673ffffffffffffffffffffffffffffffffffffffff841690811790915581906117ae82610c7b565b73ffffffffffffffffffffffffffffffffffffffff167f8c5be1e5ebec7d5bd14f71427d1e84f3dd0314c0f7b2291e5b200ac8c7c3b92560405160405180910390a45050565b60008181526002602052604081205473ffffffffffffffffffffffffffffffffffffffff166118a5576040517f08c379a000000000000000000000000000000000000000000000000000000000815260206004820152602c60248201527f4552433732313a206f70657261746f7220717565727920666f72206e6f6e657860448201527f697374656e7420746f6b656e00000000000000000000000000000000000000006064820152608401610672565b60006118b083610c7b565b90508073ffffffffffffffffffffffffffffffffffffffff168473ffffffffffffffffffffffffffffffffffffffff16148061191f57508373ffffffffffffffffffffffffffffffffffffffff16611907846105c5565b73ffffffffffffffffffffffffffffffffffffffff16145b80610973575073ffffffffffffffffffffffffffffffffffffffff80821660009081526005602090815260408083209388168352929052205460ff16610973565b8273ffffffffffffffffffffffffffffffffffffffff1661198082610c7b565b73ffffffffffffffffffffffffffffffffffffffff1614611a23576040517f08c379a000000000000000000000000000000000000000000000000000000000815260206004820152602960248201527f4552433732313a207472616e73666572206f6620746f6b656e2074686174206960448201527f73206e6f74206f776e00000000000000000000000000000000000000000000006064820152608401610672565b73ffffffffffffffffffffffffffffffffffffffff8216611ac5576040517f08c379a0000000000000000000000000000000000000000000000000000000008152602060048201526024808201527f4552433732313a207472616e7366657220746f20746865207a65726f2061646460448201527f72657373000000000000000000000000000000000000000000000000000000006064820152608401610672565b611ad0838383612608565b611adb600082611754565b73ffffffffffffffffffffffffffffffffffffffff83166000908152600360205260408120805460019290611b1190849061326d565b909155505073ffffffffffffffffffffffffffffffffffffffff82166000908152600360205260408120805460019290611b4c908490613284565b909155505060008181526002602052604080822080547fffffffffffffffffffffffff00000000000000000000000000000000000000001673ffffffffffffffffffffffffffffffffffffffff86811691821790925591518493918716917fddf252ad1be2c89b69c2b068fc378daa952ba7f163c4a11628f55a4df523b3ef91a4505050565b7fffffffffffffffffffffffffffffffffffffffffffffffffffffffffffffffff8101600081815260208590526040812054909182916fffffffffffffffffffffffffffffffff168510611c5e5760009081526020869052604090205470010000000000000000000000000000000090046fffffffffffffffffffffffffffffffff16915061107d9050565b6000828152602087905260409020546fffffffffffffffffffffffffffffffff16851015611c915760009250505061107d565b81811115611d47576002828203048103600081815260208881526040918290208251808401909352546fffffffffffffffffffffffffffffffff8082168085527001000000000000000000000000000000009092041691830191909152871415611d1657602001516fffffffffffffffffffffffffffffffff16935061107d92505050565b80516fffffffffffffffffffffffffffffffff16871115611d3957819350611d40565b6001820392505b5050611c91565b5060009081526020859052604090205470010000000000000000000000000000000090046fffffffffffffffffffffffffffffffff1690509392505050565b6000611d9182610c7b565b9050611d9f81600084612608565b611daa600083611754565b73ffffffffffffffffffffffffffffffffffffffff81166000908152600360205260408120805460019290611de090849061326d565b90915550506000828152600260205260408082208290555183919073ffffffffffffffffffffffffffffffffffffffff8416907fddf252ad1be2c89b69c2b068fc378daa952ba7f163c4a11628f55a4df523b3ef908390a45050565b6000611e4783610d45565b73ffffffffffffffffffffffffffffffffffffffff8085166000908152600d6020526040902080548583167fffffffffffffffffffffffff000000000000000000000000000000000000000082161790915591925016610f2681848461265b565b73ffffffffffffffffffffffffffffffffffffffff8216611f25576040517f08c379a000000000000000000000000000000000000000000000000000000000815260206004820181905260248201527f4552433732313a206d696e7420746f20746865207a65726f20616464726573736044820152606401610672565b60008181526002602052604090205473ffffffffffffffffffffffffffffffffffffffff1615611fb1576040517f08c379a000000000000000000000000000000000000000000000000000000000815260206004820152601c60248201527f4552433732313a20746f6b656e20616c7265616479206d696e746564000000006044820152606401610672565b611fbd60008383612608565b73ffffffffffffffffffffffffffffffffffffffff82166000908152600360205260408120805460019290611ff3908490613284565b909155505060008181526002602052604080822073ffffffffffffffffffffffffffffffffffffffff851674010000000000000000000000000000000000000000426bffffffffffffffffffffffff1602811790915590518392907fddf252ad1be2c89b69c2b068fc378daa952ba7f163c4a11628f55a4df523b3ef908290a45050565b60008061208261238a565b6040517f19010000000000000000000000000000000000000000000000000000000000006020820152602281019190915260428101849052606201604080517fffffffffffffffffffffffffffffffffffffffffffffffffffffffffffffffe081840301815291905280516020909101209392505050565b4281606001351015612138576040517f0819bdcd00000000000000000000000000000000000000000000000000000000815260040160405180910390fd5b600060018461214a602085018561329c565b604080516000815260208181018084529490945260ff9092168282015291850135606082015290840135608082015260a0016020604051602081039080840390855afa15801561219e573d6000803e3d6000fd5b50506040517fffffffffffffffffffffffffffffffffffffffffffffffffffffffffffffffe0015191505073ffffffffffffffffffffffffffffffffffffffff8116158061221857508273ffffffffffffffffffffffffffffffffffffffff168173ffffffffffffffffffffffffffffffffffffffff1614155b15610f26576040517f37e8456b00000000000000000000000000000000000000000000000000000000815260040160405180910390fd5b73ffffffffffffffffffffffffffffffffffffffff83811660008181526005602090815260408083209487168084529482529182902080547fffffffffffffffffffffffffffffffffffffffffffffffffffffffffffffff001686151590811790915591519182527f17307eab39ab6107e8899845ad3d59bd9653f200f220920489ca2b5937696c31910160405180910390a3505050565b6122f2848484611960565b6122fe8484848461296e565b610f26576040517f08c379a000000000000000000000000000000000000000000000000000000000815260206004820152603260248201527f4552433732313a207472616e7366657220746f206e6f6e20455243373231526560448201527f63656976657220696d706c656d656e74657200000000000000000000000000006064820152608401610672565b60007f8b73c3c69bb8fe3d512ecc4cf759cc79239f7b179b0ffacaa9a75d522b39400f6123e760408051808201909152600a81527f4d6f636b466f6c6c6f7700000000000000000000000000000000000000000000602082015290565b80516020918201206040805192830193909352918101919091527fc89efdaa54c0f20c7adf612882df0950f5a951637e0307cdcb4c672f298b8bc660608201524660808201523060a082015260c00160405160208183030381529060405280519060200120905090565b6000600161245e84610d45565b612468919061326d565b6000838152600760205260409020549091508082146124c85773ffffffffffffffffffffffffffffffffffffffff841660009081526006602090815260408083208584528252808320548484528184208190558352600790915290208190555b50600091825260076020908152604080842084905573ffffffffffffffffffffffffffffffffffffffff9094168352600681528383209183525290812055565b60085460009061251a9060019061326d565b600083815260096020526040812054600880549394509092849081106125425761254261320f565b9060005260206000200154905080600883815481106125635761256361320f565b600091825260208083209091019290925582815260099091526040808220849055858252812055600880548061259b5761259b6132bf565b6001900381819060005260206000200160009055905550505050565b60006125c283610d45565b73ffffffffffffffffffffffffffffffffffffffff9093166000908152600660209081526040808320868452825280832085905593825260079052919091209190915550565b73ffffffffffffffffffffffffffffffffffffffff8084166000908152600d602052604080822054858416835291205490821691166126498282600161265b565b61265485858561156b565b5050505050565b73ffffffffffffffffffffffffffffffffffffffff8316158061276f5773ffffffffffffffffffffffffffffffffffffffff84166000908152600e6020908152604080832054600c83528184207fffffffffffffffffffffffffffffffffffffffffffffffffffffffffffffffff820185529092529091205470010000000000000000000000000000000090046fffffffffffffffffffffffffffffffff16838103612708878285612b5e565b806fffffffffffffffffffffffffffffffff168773ffffffffffffffffffffffffffffffffffffffff167fd9a6070174f4ccca76ed4896432e9a090b16e07e8fe27f275f50b33500b98e524260405161276391815260200190565b60405180910390a35050505b73ffffffffffffffffffffffffffffffffffffffff8316156128f85780156127fd576010547fffffffffffffffffffffffffffffffffffffffffffffffffffffffffffffffff81016000908152600f602052604090205470010000000000000000000000000000000090046fffffffffffffffffffffffffffffffff168381016127f98184612cc7565b5050505b73ffffffffffffffffffffffffffffffffffffffff83166000908152600e6020908152604080832054600c83528184207fffffffffffffffffffffffffffffffffffffffffffffffffffffffffffffffff820185529092529091205470010000000000000000000000000000000090046fffffffffffffffffffffffffffffffff1683810161288d868285612b5e565b806fffffffffffffffffffffffffffffffff168673ffffffffffffffffffffffffffffffffffffffff167fd9a6070174f4ccca76ed4896432e9a090b16e07e8fe27f275f50b33500b98e52426040516128e891815260200190565b60405180910390a3505050610f26565b80610f26576010547fffffffffffffffffffffffffffffffffffffffffffffffffffffffffffffffff81016000908152600f602052604090205470010000000000000000000000000000000090046fffffffffffffffffffffffffffffffff168381036129658184612cc7565b50505050505050565b600073ffffffffffffffffffffffffffffffffffffffff84163b15612b53576040517f150b7a0200000000000000000000000000000000000000000000000000000000815273ffffffffffffffffffffffffffffffffffffffff85169063150b7a02906129e59033908990889088906004016132ee565b6020604051808303816000875af1925050508015612a3e575060408051601f3d9081017fffffffffffffffffffffffffffffffffffffffffffffffffffffffffffffffe0168201909252612a3b91810190613337565b60015b612b08573d808015612a6c576040519150601f19603f3d011682016040523d82523d6000602084013e612a71565b606091505b508051612b00576040517f08c379a000000000000000000000000000000000000000000000000000000000815260206004820152603260248201527f4552433732313a207472616e7366657220746f206e6f6e20455243373231526560448201527f63656976657220696d706c656d656e74657200000000000000000000000000006064820152608401610672565b805181602001fd5b7fffffffff00000000000000000000000000000000000000000000000000000000167f150b7a0200000000000000000000000000000000000000000000000000000000149050610973565b506001949350505050565b73ffffffffffffffffffffffffffffffffffffffff83166000908152600c6020526040902043908215801590612bd957507fffffffffffffffffffffffffffffffffffffffffffffffffffffffffffffffff83016000908152602082905260409020546fffffffffffffffffffffffffffffffff8381169116145b15612c42577fffffffffffffffffffffffffffffffffffffffffffffffffffffffffffffffff8301600090815260208290526040902080546fffffffffffffffffffffffffffffffff808716700100000000000000000000000000000000029116179055612654565b6040805180820182526fffffffffffffffffffffffffffffffff80851682528681166020808401918252600088815286825285812094519251841670010000000000000000000000000000000002929093169190911790925573ffffffffffffffffffffffffffffffffffffffff88168152600e909152206001840190555050505050565b438115801590612d1c57507fffffffffffffffffffffffffffffffffffffffffffffffffffffffffffffffff82016000908152600f60205260409020546fffffffffffffffffffffffffffffffff8281169116145b15612d85577fffffffffffffffffffffffffffffffffffffffffffffffffffffffffffffffff82016000908152600f6020526040902080546fffffffffffffffffffffffffffffffff808616700100000000000000000000000000000000029116179055505050565b6040805180820182526fffffffffffffffffffffffffffffffff928316815293821660208086019182526000858152600f9091529190912093519051821670010000000000000000000000000000000002911617909155600101601055565b7fffffffff0000000000000000000000000000000000000000000000000000000081168114610aae57600080fd5b600060208284031215612e2457600080fd5b813561107d81612de4565b6000815180845260005b81811015612e5557602081850181015186830182015201612e39565b81811115612e67576000602083870101525b50601f017fffffffffffffffffffffffffffffffffffffffffffffffffffffffffffffffe0169290920160200192915050565b60208152600061107d6020830184612e2f565b600060208284031215612ebf57600080fd5b5035919050565b803573ffffffffffffffffffffffffffffffffffffffff81168114612eea57600080fd5b919050565b60008060408385031215612f0257600080fd5b612f0b83612ec6565b946020939093013593505050565b600080600060608486031215612f2e57600080fd5b612f3784612ec6565b9250612f4560208501612ec6565b9150604084013590509250925092565b600060208284031215612f6757600080fd5b61107d82612ec6565b600060808284031215612f8257600080fd5b50919050565b600080600060c08486031215612f9d57600080fd5b612fa684612ec6565b925060208401359150612fbc8560408601612f70565b90509250925092565b80358015158114612eea57600080fd5b60008060008060e08587031215612feb57600080fd5b612ff485612ec6565b935061300260208601612ec6565b925061301060408601612fc5565b915061301f8660608701612f70565b905092959194509250565b6000806040838503121561303d57600080fd5b61304683612ec6565b915061305460208401612fc5565b90509250929050565b7f4e487b7100000000000000000000000000000000000000000000000000000000600052604160045260246000fd5b600080600080608085870312156130a257600080fd5b6130ab85612ec6565b93506130b960208601612ec6565b925060408501359150606085013567ffffffffffffffff808211156130dd57600080fd5b818701915087601f8301126130f157600080fd5b8135818111156131035761310361305d565b604051601f82017fffffffffffffffffffffffffffffffffffffffffffffffffffffffffffffffe0908116603f011681019083821181831017156131495761314961305d565b816040528281528a602084870101111561316257600080fd5b82602086016020830137600060208483010152809550505050505092959194509250565b60008060a0838503121561319957600080fd5b823591506130548460208501612f70565b600080600060c084860312156131bf57600080fd5b6131c884612ec6565b92506131d660208501612ec6565b9150612fbc8560408601612f70565b600080604083850312156131f857600080fd5b61320183612ec6565b915061305460208401612ec6565b7f4e487b7100000000000000000000000000000000000000000000000000000000600052603260045260246000fd5b7f4e487b7100000000000000000000000000000000000000000000000000000000600052601160045260246000fd5b60008282101561327f5761327f61323e565b500390565b600082198211156132975761329761323e565b500190565b6000602082840312156132ae57600080fd5b813560ff8116811461107d57600080fd5b7f4e487b7100000000000000000000000000000000000000000000000000000000600052603160045260246000fd5b600073ffffffffffffffffffffffffffffffffffffffff80871683528086166020840152508360408301526080606083015261332d6080830184612e2f565b9695505050505050565b60006020828403121561334957600080fd5b815161107d81612de456fea2646970667358221220ef82b7644ea8a2a95d25997048fb2d5049561265b65ace44ed3e9d069f7c612c64736f6c634300080a0033",
  "devdoc": {
    "author": "Lens Protocol",
    "kind": "dev",
    "methods": {
      "approve(address,uint256)": {
        "details": "See {IERC721-approve}."
      },
      "balanceOf(address)": {
        "details": "See {IERC721-balanceOf}."
      },
      "burn(uint256)": {
        "params": {
          "tokenId": "The token ID of the token to burn."
        }
      },
      "burnWithSig(uint256,(uint8,bytes32,bytes32,uint256))": {
        "params": {
          "sig": "The EIP712 signature struct.",
          "tokenId": "The token ID of the token to burn."
        }
      },
      "delegate(address)": {
        "params": {
          "delegatee": "The delegatee address to delegate governance power to."
        }
      },
      "delegateBySig(address,address,(uint8,bytes32,bytes32,uint256))": {
        "params": {
          "delegatee": "The delegatee address, who is receiving the governance power delegation.",
          "delegator": "The delegator address, who is the signer.",
          "sig": "The EIP712Signature struct containing the necessary parameters to recover the delegator's signature."
        }
      },
      "exists(uint256)": {
        "details": "See {IERC721Time-exists}"
      },
      "getApproved(uint256)": {
        "details": "See {IERC721-getApproved}."
      },
      "getDelegatedSupplyByBlockNumber(uint256)": {
        "params": {
          "blockNumber": "The block number to query the delegated supply at."
        },
        "returns": {
          "_0": "uint256 The delegated supply at the given block number."
        }
      },
      "getDomainSeparator()": {
        "returns": {
          "_0": "bytes32 The domain separator."
        }
      },
      "getPowerByBlockNumber(address,uint256)": {
        "params": {
          "blockNumber": "The block number to query the user's governance power at.",
          "user": "The user to query governance power for."
        },
        "returns": {
          "_0": "uint256 The power of the given user at the given block number."
        }
      },
      "initialize(uint256)": {
        "params": {
          "profileId": "The token ID of the profile in the hub associated with this followNFT, used for transfer hooks."
        }
      },
      "isApprovedForAll(address,address)": {
        "details": "See {IERC721-isApprovedForAll}."
      },
      "mint(address)": {
        "params": {
          "to": "The address to mint the NFT to."
        },
        "returns": {
          "_0": "uint256 An interger representing the minted token ID."
        }
      },
      "mintTimestampOf(uint256)": {
        "details": "See {IERC721Time-mintTimestampOf}"
      },
      "name()": {
        "details": "See {IERC721Metadata-name}."
      },
      "ownerOf(uint256)": {
        "details": "See {IERC721-ownerOf}."
      },
      "permit(address,uint256,(uint8,bytes32,bytes32,uint256))": {
        "params": {
          "sig": "The EIP712 signature struct.",
          "spender": "The NFT spender.",
          "tokenId": "The NFT token ID to approve."
        }
      },
      "permitForAll(address,address,bool,(uint8,bytes32,bytes32,uint256))": {
        "params": {
          "approved": "Whether to approve or revoke approval from the operator.",
          "operator": "The operator to approve.",
          "owner": "The owner to set operator approvals for.",
          "sig": "The EIP712 signature struct."
        }
      },
      "safeTransferFrom(address,address,uint256)": {
        "details": "See {IERC721-safeTransferFrom}."
      },
      "safeTransferFrom(address,address,uint256,bytes)": {
        "details": "See {IERC721-safeTransferFrom}."
      },
      "setApprovalForAll(address,bool)": {
        "details": "See {IERC721-setApprovalForAll}."
      },
      "supportsInterface(bytes4)": {
        "details": "See {IERC165-supportsInterface}."
      },
      "symbol()": {
        "details": "See {IERC721Metadata-symbol}."
      },
      "tokenByIndex(uint256)": {
        "details": "See {IERC721Enumerable-tokenByIndex}."
      },
      "tokenDataOf(uint256)": {
        "details": "See {IERC721Time-mintTimestampOf}"
      },
      "tokenOfOwnerByIndex(address,uint256)": {
        "details": "See {IERC721Enumerable-tokenOfOwnerByIndex}."
      },
      "tokenURI(uint256)": {
        "details": "This returns the follow NFT URI fetched from the hub."
      },
      "totalSupply()": {
        "details": "See {IERC721Enumerable-totalSupply}."
      },
      "transferFrom(address,address,uint256)": {
        "details": "See {IERC721-transferFrom}."
      }
    },
    "title": "FollowNFT",
    "version": 1
  },
  "userdoc": {
    "kind": "user",
    "methods": {
      "burn(uint256)": {
        "notice": "Burns an NFT, removing it from circulation and essentially destroying it. This function can only be called by the NFT to burn's owner."
      },
      "burnWithSig(uint256,(uint8,bytes32,bytes32,uint256))": {
        "notice": "Implementation of an EIP-712 permit-style function for token burning. Allows anyone to burn a token on behalf of the owner with a signature."
      },
      "delegate(address)": {
        "notice": "Delegates the caller's governance power to the given delegatee address."
      },
      "delegateBySig(address,address,(uint8,bytes32,bytes32,uint256))": {
        "notice": "Delegates the delegator's governance power via meta-tx to the given delegatee address."
      },
      "getDelegatedSupplyByBlockNumber(uint256)": {
        "notice": "Returns the total delegated supply at a specified block number. This is the sum of all current available voting power at a given block."
      },
      "getDomainSeparator()": {
        "notice": "Returns the domain separator for this NFT contract."
      },
      "getPowerByBlockNumber(address,uint256)": {
        "notice": "Returns the governance power for a given user at a specified block number."
      },
      "initialize(uint256)": {
        "notice": "Initializes the follow NFT, setting the hub as the privileged minter and storing the associated profile ID."
      },
      "mint(address)": {
        "notice": "Mints a follow NFT to the specified address. This can only be called by the hub, and is called upon follow."
      },
      "permit(address,uint256,(uint8,bytes32,bytes32,uint256))": {
        "notice": "Implementation of an EIP-712 permit function for an ERC-721 NFT. We don't need to check if the tokenId exists, since the function calls ownerOf(tokenId), which reverts if the tokenId does not exist."
      },
      "permitForAll(address,address,bool,(uint8,bytes32,bytes32,uint256))": {
        "notice": "Implementation of an EIP-712 permit-style function for ERC-721 operator approvals. Allows an operator address to control all NFTs a given owner owns."
      }
    },
    "notice": "This contract is the NFT that is minted upon following a given profile. It is cloned upon first follow for a given profile, and includes built-in governance power and delegation mechanisms. NOTE: This contract assumes total NFT supply for this follow NFT will never exceed 2^128 - 1",
    "version": 1
  },
  "storageLayout": {
    "storage": [
      {
        "astId": 1134,
        "contract": "contracts/mocks/MockFollow.sol:MockFollow",
        "label": "_name",
        "offset": 0,
        "slot": "0",
        "type": "t_string_storage"
      },
      {
        "astId": 1136,
        "contract": "contracts/mocks/MockFollow.sol:MockFollow",
        "label": "_symbol",
        "offset": 0,
        "slot": "1",
        "type": "t_string_storage"
      },
      {
        "astId": 1141,
        "contract": "contracts/mocks/MockFollow.sol:MockFollow",
        "label": "_tokenData",
        "offset": 0,
        "slot": "2",
        "type": "t_mapping(t_uint256,t_struct(TokenData)2029_storage)"
      },
      {
        "astId": 1145,
        "contract": "contracts/mocks/MockFollow.sol:MockFollow",
        "label": "_balances",
        "offset": 0,
        "slot": "3",
        "type": "t_mapping(t_address,t_uint256)"
      },
      {
        "astId": 1149,
        "contract": "contracts/mocks/MockFollow.sol:MockFollow",
        "label": "_tokenApprovals",
        "offset": 0,
        "slot": "4",
        "type": "t_mapping(t_uint256,t_address)"
      },
      {
        "astId": 1155,
        "contract": "contracts/mocks/MockFollow.sol:MockFollow",
        "label": "_operatorApprovals",
        "offset": 0,
        "slot": "5",
        "type": "t_mapping(t_address,t_mapping(t_address,t_bool))"
      },
      {
        "astId": 785,
        "contract": "contracts/mocks/MockFollow.sol:MockFollow",
        "label": "_ownedTokens",
        "offset": 0,
        "slot": "6",
        "type": "t_mapping(t_address,t_mapping(t_uint256,t_uint256))"
      },
      {
        "astId": 789,
        "contract": "contracts/mocks/MockFollow.sol:MockFollow",
        "label": "_ownedTokensIndex",
        "offset": 0,
        "slot": "7",
        "type": "t_mapping(t_uint256,t_uint256)"
      },
      {
        "astId": 792,
        "contract": "contracts/mocks/MockFollow.sol:MockFollow",
        "label": "_allTokens",
        "offset": 0,
        "slot": "8",
        "type": "t_array(t_uint256)dyn_storage"
      },
      {
        "astId": 796,
        "contract": "contracts/mocks/MockFollow.sol:MockFollow",
        "label": "_allTokensIndex",
        "offset": 0,
        "slot": "9",
        "type": "t_mapping(t_uint256,t_uint256)"
      },
      {
        "astId": 2103,
        "contract": "contracts/mocks/MockFollow.sol:MockFollow",
        "label": "sigNonces",
        "offset": 0,
        "slot": "10",
        "type": "t_mapping(t_address,t_uint256)"
      },
      {
        "astId": 3840,
        "contract": "contracts/mocks/MockFollow.sol:MockFollow",
        "label": "HUB",
        "offset": 0,
        "slot": "11",
        "type": "t_address"
      },
      {
        "astId": 3852,
        "contract": "contracts/mocks/MockFollow.sol:MockFollow",
        "label": "_snapshots",
        "offset": 0,
        "slot": "12",
        "type": "t_mapping(t_address,t_mapping(t_uint256,t_struct(Snapshot)3838_storage))"
      },
      {
        "astId": 3856,
        "contract": "contracts/mocks/MockFollow.sol:MockFollow",
        "label": "_delegates",
        "offset": 0,
        "slot": "13",
        "type": "t_mapping(t_address,t_address)"
      },
      {
        "astId": 3860,
        "contract": "contracts/mocks/MockFollow.sol:MockFollow",
        "label": "_snapshotCount",
        "offset": 0,
        "slot": "14",
        "type": "t_mapping(t_address,t_uint256)"
      },
      {
        "astId": 3865,
        "contract": "contracts/mocks/MockFollow.sol:MockFollow",
        "label": "_delSupplySnapshots",
        "offset": 0,
        "slot": "15",
        "type": "t_mapping(t_uint256,t_struct(Snapshot)3838_storage)"
      },
      {
        "astId": 3867,
        "contract": "contracts/mocks/MockFollow.sol:MockFollow",
        "label": "_delSupplySnapshotCount",
        "offset": 0,
        "slot": "16",
        "type": "t_uint256"
      },
      {
        "astId": 3869,
        "contract": "contracts/mocks/MockFollow.sol:MockFollow",
        "label": "_profileId",
        "offset": 0,
        "slot": "17",
        "type": "t_uint256"
      },
      {
        "astId": 3871,
        "contract": "contracts/mocks/MockFollow.sol:MockFollow",
        "label": "_tokenIdCounter",
        "offset": 0,
        "slot": "18",
        "type": "t_uint256"
      },
      {
        "astId": 3873,
        "contract": "contracts/mocks/MockFollow.sol:MockFollow",
        "label": "_initialized",
        "offset": 0,
        "slot": "19",
        "type": "t_bool"
      }
    ],
    "types": {
      "t_address": {
        "encoding": "inplace",
        "label": "address",
        "numberOfBytes": "20"
      },
      "t_array(t_uint256)dyn_storage": {
        "base": "t_uint256",
        "encoding": "dynamic_array",
        "label": "uint256[]",
        "numberOfBytes": "32"
      },
      "t_bool": {
        "encoding": "inplace",
        "label": "bool",
        "numberOfBytes": "1"
      },
      "t_mapping(t_address,t_address)": {
        "encoding": "mapping",
        "key": "t_address",
        "label": "mapping(address => address)",
        "numberOfBytes": "32",
        "value": "t_address"
      },
      "t_mapping(t_address,t_bool)": {
        "encoding": "mapping",
        "key": "t_address",
        "label": "mapping(address => bool)",
        "numberOfBytes": "32",
        "value": "t_bool"
      },
      "t_mapping(t_address,t_mapping(t_address,t_bool))": {
        "encoding": "mapping",
        "key": "t_address",
        "label": "mapping(address => mapping(address => bool))",
        "numberOfBytes": "32",
        "value": "t_mapping(t_address,t_bool)"
      },
      "t_mapping(t_address,t_mapping(t_uint256,t_struct(Snapshot)3838_storage))": {
        "encoding": "mapping",
        "key": "t_address",
        "label": "mapping(address => mapping(uint256 => struct MockFollow.Snapshot))",
        "numberOfBytes": "32",
        "value": "t_mapping(t_uint256,t_struct(Snapshot)3838_storage)"
      },
      "t_mapping(t_address,t_mapping(t_uint256,t_uint256))": {
        "encoding": "mapping",
        "key": "t_address",
        "label": "mapping(address => mapping(uint256 => uint256))",
        "numberOfBytes": "32",
        "value": "t_mapping(t_uint256,t_uint256)"
      },
      "t_mapping(t_address,t_uint256)": {
        "encoding": "mapping",
        "key": "t_address",
        "label": "mapping(address => uint256)",
        "numberOfBytes": "32",
        "value": "t_uint256"
      },
      "t_mapping(t_uint256,t_address)": {
        "encoding": "mapping",
        "key": "t_uint256",
        "label": "mapping(uint256 => address)",
        "numberOfBytes": "32",
        "value": "t_address"
      },
      "t_mapping(t_uint256,t_struct(Snapshot)3838_storage)": {
        "encoding": "mapping",
        "key": "t_uint256",
        "label": "mapping(uint256 => struct MockFollow.Snapshot)",
        "numberOfBytes": "32",
        "value": "t_struct(Snapshot)3838_storage"
      },
      "t_mapping(t_uint256,t_struct(TokenData)2029_storage)": {
        "encoding": "mapping",
        "key": "t_uint256",
        "label": "mapping(uint256 => struct IERC721Time.TokenData)",
        "numberOfBytes": "32",
        "value": "t_struct(TokenData)2029_storage"
      },
      "t_mapping(t_uint256,t_uint256)": {
        "encoding": "mapping",
        "key": "t_uint256",
        "label": "mapping(uint256 => uint256)",
        "numberOfBytes": "32",
        "value": "t_uint256"
      },
      "t_string_storage": {
        "encoding": "bytes",
        "label": "string",
        "numberOfBytes": "32"
      },
      "t_struct(Snapshot)3838_storage": {
        "encoding": "inplace",
        "label": "struct MockFollow.Snapshot",
        "members": [
          {
            "astId": 3835,
            "contract": "contracts/mocks/MockFollow.sol:MockFollow",
            "label": "blockNumber",
            "offset": 0,
            "slot": "0",
            "type": "t_uint128"
          },
          {
            "astId": 3837,
            "contract": "contracts/mocks/MockFollow.sol:MockFollow",
            "label": "value",
            "offset": 16,
            "slot": "0",
            "type": "t_uint128"
          }
        ],
        "numberOfBytes": "32"
      },
      "t_struct(TokenData)2029_storage": {
        "encoding": "inplace",
        "label": "struct IERC721Time.TokenData",
        "members": [
          {
            "astId": 2026,
            "contract": "contracts/mocks/MockFollow.sol:MockFollow",
            "label": "owner",
            "offset": 0,
            "slot": "0",
            "type": "t_address"
          },
          {
            "astId": 2028,
            "contract": "contracts/mocks/MockFollow.sol:MockFollow",
            "label": "mintTimestamp",
            "offset": 20,
            "slot": "0",
            "type": "t_uint96"
          }
        ],
        "numberOfBytes": "32"
      },
      "t_uint128": {
        "encoding": "inplace",
        "label": "uint128",
        "numberOfBytes": "16"
      },
      "t_uint256": {
        "encoding": "inplace",
        "label": "uint256",
        "numberOfBytes": "32"
      },
      "t_uint96": {
        "encoding": "inplace",
        "label": "uint96",
        "numberOfBytes": "12"
      }
    }
  }
}