{
  "address": "0x0bDe1f286E7cba9A7382931e0A38fe674aE7d68D",
  "abi": [
    {
      "inputs": [],
      "stateMutability": "nonpayable",
      "type": "constructor"
    },
    {
      "anonymous": false,
      "inputs": [
        {
          "indexed": false,
          "internalType": "uint256",
          "name": "count",
          "type": "uint256"
        }
      ],
      "name": "Changed",
      "type": "event"
    },
    {
      "inputs": [],
      "name": "count",
      "outputs": [
        {
          "internalType": "uint256",
          "name": "",
          "type": "uint256"
        }
      ],
      "stateMutability": "view",
      "type": "function"
    },
    {
      "inputs": [],
      "name": "increment",
      "outputs": [],
      "stateMutability": "nonpayable",
      "type": "function"
    }
  ],
  "transactionHash": "0x25ecea5bfa6b0600c0ec55c468e5683aae687c201b970718c03e11a3aecdf2f6",
  "args": [],
  "numDeployments": 1,
  "solcInputHash": "f7549eaa313b804d91def2ef2d685aaa",
  "bytecode": "0x608060405234801561001057600080fd5b506000805561011a806100246000396000f3fe6080604052348015600f57600080fd5b506004361060325760003560e01c806306661abd146037578063d09de08a146051575b600080fd5b603f60005481565b60405190815260200160405180910390f35b60576059565b005b60016000808282546069919060a6565b90915550506000546040519081527f938d2ee5be9cfb0f7270ee2eff90507e94b37625d9d2b3a61c97d30a4560b8299060200160405180910390a1565b6000821982111560df577f4e487b7100000000000000000000000000000000000000000000000000000000600052601160045260246000fd5b50019056fea264697066735822122067d7d6ffb7753e053fbac00250488a39a44b21003ce66b18f94ee927dc44194b64736f6c634300080a0033",
  "devdoc": {
    "kind": "dev",
    "methods": {},
    "version": 1
  },
  "userdoc": {
    "kind": "user",
    "methods": {},
    "version": 1
  },
  "storageLayout": {
    "storage": [
      {
        "astId": 5600,
        "contract": "contracts/mocks/Target.sol:Target",
        "label": "count",
        "offset": 0,
        "slot": "0",
        "type": "t_uint256"
      }
    ],
    "types": {
      "t_uint256": {
        "encoding": "inplace",
        "label": "uint256",
        "numberOfBytes": "32"
      }
    }
  }
}