{
  "address": "0x18AE4B8dB687fC2BD9266378cc6E6bf8E7e7Df8D",
  "abi": [
    {
      "constant": true,
      "inputs": [],
      "name": "hasInitialized",
      "outputs": [
        {
          "name": "",
          "type": "bool"
        }
      ],
      "payable": false,
      "stateMutability": "view",
      "type": "function"
    },
    {
      "constant": true,
      "inputs": [
        {
          "name": "_script",
          "type": "bytes"
        }
      ],
      "name": "getEVMScriptExecutor",
      "outputs": [
        {
          "name": "",
          "type": "address"
        }
      ],
      "payable": false,
      "stateMutability": "view",
      "type": "function"
    },
    {
      "constant": true,
      "inputs": [],
      "name": "getRecoveryVault",
      "outputs": [
        {
          "name": "",
          "type": "address"
        }
      ],
      "payable": false,
      "stateMutability": "view",
      "type": "function"
    },
    {
      "constant": true,
      "inputs": [
        {
          "name": "token",
          "type": "address"
        }
      ],
      "name": "allowRecoverability",
      "outputs": [
        {
          "name": "",
          "type": "bool"
        }
      ],
      "payable": false,
      "stateMutability": "view",
      "type": "function"
    },
    {
      "constant": true,
      "inputs": [],
      "name": "appId",
      "outputs": [
        {
          "name": "",
          "type": "bytes32"
        }
      ],
      "payable": false,
      "stateMutability": "view",
      "type": "function"
    },
    {
      "constant": true,
      "inputs": [],
      "name": "getInitializationBlock",
      "outputs": [
        {
          "name": "",
          "type": "uint256"
        }
      ],
      "payable": false,
      "stateMutability": "view",
      "type": "function"
    },
    {
      "constant": false,
      "inputs": [
        {
          "name": "_token",
          "type": "address"
        }
      ],
      "name": "transferToVault",
      "outputs": [],
      "payable": false,
      "stateMutability": "nonpayable",
      "type": "function"
    },
    {
      "constant": true,
      "inputs": [
        {
          "name": "_sender",
          "type": "address"
        },
        {
          "name": "_role",
          "type": "bytes32"
        },
        {
          "name": "_params",
          "type": "uint256[]"
        }
      ],
      "name": "canPerform",
      "outputs": [
        {
          "name": "",
          "type": "bool"
        }
      ],
      "payable": false,
      "stateMutability": "view",
      "type": "function"
    },
    {
      "constant": true,
      "inputs": [],
      "name": "getEVMScriptRegistry",
      "outputs": [
        {
          "name": "",
          "type": "address"
        }
      ],
      "payable": false,
      "stateMutability": "view",
      "type": "function"
    },
    {
      "constant": true,
      "inputs": [
        {
          "name": "_sender",
          "type": "address"
        },
        {
          "name": "",
          "type": "bytes"
        }
      ],
      "name": "canForward",
      "outputs": [
        {
          "name": "",
          "type": "bool"
        }
      ],
      "payable": false,
      "stateMutability": "view",
      "type": "function"
    },
    {
      "constant": false,
      "inputs": [
        {
          "name": "_token",
          "type": "address"
        }
      ],
      "name": "initialize",
      "outputs": [],
      "payable": false,
      "stateMutability": "nonpayable",
      "type": "function"
    },
    {
      "constant": true,
      "inputs": [],
      "name": "FANTOM_ROLE",
      "outputs": [
        {
          "name": "",
          "type": "bytes32"
        }
      ],
      "payable": false,
      "stateMutability": "view",
      "type": "function"
    },
    {
      "constant": true,
      "inputs": [],
      "name": "kernel",
      "outputs": [
        {
          "name": "",
          "type": "address"
        }
      ],
      "payable": false,
      "stateMutability": "view",
      "type": "function"
    },
    {
      "constant": false,
      "inputs": [
        {
          "name": "_evmScript",
          "type": "bytes"
        }
      ],
      "name": "forward",
      "outputs": [],
      "payable": false,
      "stateMutability": "nonpayable",
      "type": "function"
    },
    {
      "constant": true,
      "inputs": [],
      "name": "isPetrified",
      "outputs": [
        {
          "name": "",
          "type": "bool"
        }
      ],
      "payable": false,
      "stateMutability": "view",
      "type": "function"
    },
    {
      "constant": true,
      "inputs": [],
      "name": "token",
      "outputs": [
        {
          "name": "",
          "type": "address"
        }
      ],
      "payable": false,
      "stateMutability": "view",
      "type": "function"
    },
    {
      "constant": true,
      "inputs": [],
      "name": "isForwarder",
      "outputs": [
        {
          "name": "",
          "type": "bool"
        }
      ],
      "payable": false,
      "stateMutability": "pure",
      "type": "function"
    },
    {
      "anonymous": false,
      "inputs": [
        {
          "indexed": true,
          "name": "executor",
          "type": "address"
        },
        {
          "indexed": false,
          "name": "script",
          "type": "bytes"
        },
        {
          "indexed": false,
          "name": "input",
          "type": "bytes"
        },
        {
          "indexed": false,
          "name": "returnData",
          "type": "bytes"
        }
      ],
      "name": "ScriptResult",
      "type": "event"
    },
    {
      "anonymous": false,
      "inputs": [
        {
          "indexed": true,
          "name": "vault",
          "type": "address"
        },
        {
          "indexed": true,
          "name": "token",
          "type": "address"
        },
        {
          "indexed": false,
          "name": "amount",
          "type": "uint256"
        }
      ],
      "name": "RecoverToVault",
      "type": "event"
    }
  ],
  "transactionHash": "0x40d07ffbba25532109880410f5ce9bccbc00e73bfe8cc51218e86a237be4122e",
  "args": [],
  "numDeployments": 2,
  "solcInputHash": "715002c95ee264b76bfea230df9b4146",
  "bytecode": "0x6080604052620000176401000000006200001d810204565b6200023b565b6200003064010000000062000125810204565b60408051808201909152601881527f494e49545f414c52454144595f494e495449414c495a45440000000000000000602082015290156200010c576040517f08c379a00000000000000000000000000000000000000000000000000000000081526004018080602001828103825283818151815260200191508051906020019080838360005b83811015620000d0578181015183820152602001620000b6565b50505050905090810190601f168015620000fe5780820380516001836020036101000a031916815260200191505b509250505060405180910390fd5b506200012360001964010000000062000154810204565b565b60006200014f60008051602062001d378339815191526401000000006200106b6200023382021704565b905090565b6200016764010000000062000125810204565b60408051808201909152601881527f494e49545f414c52454144595f494e495449414c495a454400000000000000006020820152901562000206576040517f08c379a000000000000000000000000000000000000000000000000000000000815260040180806020018281038252838181518152602001915080519060200190808383600083811015620000d0578181015183820152602001620000b6565b506200023060008051602062001d378339815191528264010000000062001abc6200023782021704565b50565b5490565b9055565b611aec806200024b6000396000f3006080604052600436106100f05763ffffffff7c01000000000000000000000000000000000000000000000000000000006000350416630803fac081146100f55780632914b9bd1461011e57806332f0a3b5146101a05780637e7db6e1146101b557806380afdea8146101e35780638b3dd7491461020a5780639d4941d81461021f578063a1658fad1461024f578063a479e508146102c3578063c0774df3146102d8578063c4d66de81461034c578063cb668ec81461037a578063d4aae0c41461038f578063d948d468146103a4578063de4796ed146103fd578063fc0c546a14610412578063fd64eccb14610427575b600080fd5b34801561010157600080fd5b5061010a61043c565b604080519115158252519081900360200190f35b34801561012a57600080fd5b506040805160206004803580820135601f81018490048402850184019095528484526101779436949293602493928401919081908401838280828437509497506104659650505050505050565b6040805173ffffffffffffffffffffffffffffffffffffffff9092168252519081900360200190f35b3480156101ac57600080fd5b50610177610571565b3480156101c157600080fd5b5061010a73ffffffffffffffffffffffffffffffffffffffff6004351661060f565b3480156101ef57600080fd5b506101f8610615565b60408051918252519081900360200190f35b34801561021657600080fd5b506101f8610645565b34801561022b57600080fd5b5061024d73ffffffffffffffffffffffffffffffffffffffff60043516610670565b005b34801561025b57600080fd5b50604080516020600460443581810135838102808601850190965280855261010a95833573ffffffffffffffffffffffffffffffffffffffff169560248035963696956064959394920192918291850190849080828437509497506109ce9650505050505050565b3480156102cf57600080fd5b50610177610b5e565b3480156102e457600080fd5b5060408051602060046024803582810135601f810185900485028601850190965285855261010a95833573ffffffffffffffffffffffffffffffffffffffff16953695604494919390910191908190840183828082843750949750610c209650505050505050565b34801561035857600080fd5b5061024d73ffffffffffffffffffffffffffffffffffffffff60043516610ce1565b34801561038657600080fd5b506101f8610dd5565b34801561039b57600080fd5b50610177610e0a565b3480156103b057600080fd5b506040805160206004803580820135601f810184900484028501840190955284845261024d943694929360249392840191908190840183828082843750949750610e359650505050505050565b34801561040957600080fd5b5061010a611015565b34801561041e57600080fd5b50610177611046565b34801561043357600080fd5b5061010a611062565b600080610447610645565b9050801580159061045f57508061045c611067565b10155b91505090565b600061046f610b5e565b73ffffffffffffffffffffffffffffffffffffffff166304bf2a7f836040518263ffffffff167c01000000000000000000000000000000000000000000000000000000000281526004018080602001828103825283818151815260200191508051906020019080838360005b838110156104f35781810151838201526020016104db565b50505050905090810190601f1680156105205780820380516001836020036101000a031916815260200191505b5092505050602060405180830381600087803b15801561053f57600080fd5b505af1158015610553573d6000803e3d6000fd5b505050506040513d602081101561056957600080fd5b505192915050565b600061057b610e0a565b73ffffffffffffffffffffffffffffffffffffffff166332f0a3b56040518163ffffffff167c0100000000000000000000000000000000000000000000000000000000028152600401602060405180830381600087803b1580156105de57600080fd5b505af11580156105f2573d6000803e3d6000fd5b505050506040513d602081101561060857600080fd5b5051905090565b50600190565b60006106407fd625496217aa6a3453eecb9c3489dc5a53e6c67b444329ea2b2cbc9ff547639b61106b565b905090565b60006106407febb05b386a8d34882b8711d156f463690983dc47815980fb82aeeff1aa43579e61106b565b600080600061067e8461060f565b60408051808201909152601281527f5245434f5645525f444953414c4c4f57454400000000000000000000000000006020820152901515610757576040517f08c379a00000000000000000000000000000000000000000000000000000000081526004018080602001828103825283818151815260200191508051906020019080838360005b8381101561071c578181015183820152602001610704565b50505050905090810190601f1680156107495780820380516001836020036101000a031916815260200191505b509250505060405180910390fd5b50610760610571565b925061076b83611073565b60408051808201909152601a81527f5245434f5645525f5641554c545f4e4f545f434f4e54524143540000000000006020820152901515610808576040517f08c379a00000000000000000000000000000000000000000000000000000000081526004018080602001828103825283818151815260200191508051906020019080838360008381101561071c578181015183820152602001610704565b5073ffffffffffffffffffffffffffffffffffffffff84161515610873576040513031925073ffffffffffffffffffffffffffffffffffffffff84169083156108fc029084906000818181858888f1935050505015801561086d573d6000803e3d6000fd5b50610963565b508261089b73ffffffffffffffffffffffffffffffffffffffff82163063ffffffff6110ad16565b91506108c473ffffffffffffffffffffffffffffffffffffffff8216848463ffffffff6111e616565b60408051808201909152601d81527f5245434f5645525f544f4b454e5f5452414e534645525f4641494c45440000006020820152901515610961576040517f08c379a00000000000000000000000000000000000000000000000000000000081526004018080602001828103825283818151815260200191508051906020019080838360008381101561071c578181015183820152602001610704565b505b8373ffffffffffffffffffffffffffffffffffffffff168373ffffffffffffffffffffffffffffffffffffffff167f596caf56044b55fb8c4ca640089bbc2b63cae3e978b851f5745cbb7c5b288e02846040518082815260200191505060405180910390a350505050565b6000806109d961043c565b15156109e85760009150610b56565b6109f0610e0a565b905073ffffffffffffffffffffffffffffffffffffffff81161515610a185760009150610b56565b8073ffffffffffffffffffffffffffffffffffffffff1663fdef9106863087610a408861127e565b6040517c010000000000000000000000000000000000000000000000000000000063ffffffff871602815273ffffffffffffffffffffffffffffffffffffffff808616600483019081529085166024830152604482018490526080606483019081528351608484015283519192909160a490910190602085019080838360005b83811015610ad8578181015183820152602001610ac0565b50505050905090810190601f168015610b055780820380516001836020036101000a031916815260200191505b5095505050505050602060405180830381600087803b158015610b2757600080fd5b505af1158015610b3b573d6000803e3d6000fd5b505050506040513d6020811015610b5157600080fd5b505191505b509392505050565b600080610b69610e0a565b604080517fbe00bbd80000000000000000000000000000000000000000000000000000000081527fd6f028ca0e8edb4a8c9757ca4fdccab25fa1e0317da1188108f7d2dee14902fb60048201527fddbcfd564f642ab5627cf68b9b7d374fb4f8a36e941a75d89c87998cef03bd616024820152905173ffffffffffffffffffffffffffffffffffffffff929092169163be00bbd8916044808201926020929091908290030181600087803b15801561053f57600080fd5b6000610c2a61043c565b8015610cda575060008054604080517f2c994dc800000000000000000000000000000000000000000000000000000000815273ffffffffffffffffffffffffffffffffffffffff878116600483015243602483015291519190921691632c994dc891604480830192602092919082900301818787803b158015610cac57600080fd5b505af1158015610cc0573d6000803e3d6000fd5b505050506040513d6020811015610cd657600080fd5b5051115b9392505050565b610ce9610645565b60408051808201909152601881527f494e49545f414c52454144595f494e495449414c495a4544000000000000000060208201529015610d85576040517f08c379a00000000000000000000000000000000000000000000000000000000081526004018080602001828103825283818151815260200191508051906020019080838360008381101561071c578181015183820152602001610704565b50610d8e611288565b600080547fffffffffffffffffffffffff00000000000000000000000000000000000000001673ffffffffffffffffffffffffffffffffffffffff92909216919091179055565b604080517f46414e544f4d5f524f4c450000000000000000000000000000000000000000008152905190819003600b01902081565b60006106407f4172f0f7d2289153072b0a6ca36959e0cbe2efc3afe50fc81636caa96338137b61106b565b606080610e4061043c565b8015610eee575060008054604080517f2c994dc8000000000000000000000000000000000000000000000000000000008152336004820152436024820152905173ffffffffffffffffffffffffffffffffffffffff90921691632c994dc89160448082019260209290919082900301818787803b158015610ec057600080fd5b505af1158015610ed4573d6000803e3d6000fd5b505050506040513d6020811015610eea57600080fd5b5051115b60408051808201909152601281527f56465f43414e5f4e4f545f464f525741524400000000000000000000000000006020820152901515610f8b576040517f08c379a00000000000000000000000000000000000000000000000000000000081526004018080602001828103825283818151815260200191508051906020019080838360008381101561071c578181015183820152602001610704565b50604080516000815260016020808301828152606084018552929550919290919085019080388339505060008054835193945073ffffffffffffffffffffffffffffffffffffffff16928492508110610fe057fe5b73ffffffffffffffffffffffffffffffffffffffff90921660209283029091019091015261100f838383611367565b50505050565b60007fffffffffffffffffffffffffffffffffffffffffffffffffffffffffffffffff611040610645565b14905090565b60005473ffffffffffffffffffffffffffffffffffffffff1681565b600190565b4390565b5490565b5490565b60008073ffffffffffffffffffffffffffffffffffffffff8316151561109c57600091506110a7565b823b90506000811191505b50919050565b6040805173ffffffffffffffffffffffffffffffffffffffff83166024808301919091528251808303909101815260449091019091526020810180517bffffffffffffffffffffffffffffffffffffffffffffffffffffffff167f70a0823100000000000000000000000000000000000000000000000000000000179052600090818061113a8684611a3d565b60408051808201909152601c81527f534146455f4552435f32305f42414c414e43455f524556455254454400000000602082015291935091508215156111dc576040517f08c379a00000000000000000000000000000000000000000000000000000000081526004018080602001828103825283818151815260200191508051906020019080838360008381101561071c578181015183820152602001610704565b5095945050505050565b6040805173ffffffffffffffffffffffffffffffffffffffff8416602482015260448082018490528251808303909101815260649091019091526020810180517bffffffffffffffffffffffffffffffffffffffffffffffffffffffff167fa9059cbb000000000000000000000000000000000000000000000000000000001790526000906112758582611a6e565b95945050505050565b8051602002815290565b611290610645565b60408051808201909152601881527f494e49545f414c52454144595f494e495449414c495a454400000000000000006020820152901561132c576040517f08c379a00000000000000000000000000000000000000000000000000000000081526004018080602001828103825283818151815260200191508051906020019080838360008381101561071c578181015183820152602001610704565b50611365611338611067565b7febb05b386a8d34882b8711d156f463690983dc47815980fb82aeeff1aa43579e9063ffffffff611abc16565b565b606060008060608061137761043c565b60408051808201909152601481527f494e49545f4e4f545f494e495449414c495a45440000000000000000000000006020820152901515611414576040517f08c379a00000000000000000000000000000000000000000000000000000000081526004018080602001828103825283818151815260200191508051906020019080838360008381101561071c578181015183820152602001610704565b50600080611420610e0a565b915061142a610615565b90506114358a610465565b60408051808201909152601b81527f45564d52554e5f4558454355544f525f554e415641494c41424c450000000000602082015290965073ffffffffffffffffffffffffffffffffffffffff871615156114eb576040517f08c379a00000000000000000000000000000000000000000000000000000000081526004018080602001828103825283818151815260200191508051906020019080838360008381101561071c578181015183820152602001610704565b506040516060602482019081528b5160848301528b517f279cea3500000000000000000000000000000000000000000000000000000000975087928d928d928d9282916044820191606481019160a490910190602089019080838360005b83811015611561578181015183820152602001611549565b50505050905090810190601f16801561158e5780820380516001836020036101000a031916815260200191505b50848103835286518152865160209182019188019080838360005b838110156115c15781810151838201526020016115a9565b50505050905090810190601f1680156115ee5780820380516001836020036101000a031916815260200191505b508481038252855181528551602091820191808801910280838360005b8381101561162357818101518382015260200161160b565b505050509050019650505050505050604051602081830303815290604052907bffffffffffffffffffffffffffffffffffffffffffffffffffffffff19166020820180517bffffffffffffffffffffffffffffffffffffffffffffffffffffffff83818316178352505050509350600080855160208701895af4604051935080801561172857603f3d1180156116c65760203d03806020883e8601604052611722565b7f08c379a000000000000000000000000000000000000000000000000000000000865260206004870152601e60248701527f45564d52554e5f4558454355544f525f494e56414c49445f52455455524e00006044870152606486fd5b50611731565b3d6000863e3d85fd5b50508573ffffffffffffffffffffffffffffffffffffffff167f5229a5dba83a54ae8cb5b51bdd6de9474cacbe9dd332f5185f3a4f4f2e3f4ad98b8b8660405180806020018060200180602001848103845287818151815260200191508051906020019080838360005b838110156117b357818101518382015260200161179b565b50505050905090810190601f1680156117e05780820380516001836020036101000a031916815260200191505b50848103835286518152865160209182019188019080838360005b838110156118135781810151838201526020016117fb565b50505050905090810190601f1680156118405780820380516001836020036101000a031916815260200191505b50848103825285518152855160209182019187019080838360005b8381101561187357818101518382015260200161185b565b50505050905090810190601f1680156118a05780820380516001836020036101000a031916815260200191505b50965050505050505060405180910390a28296508173ffffffffffffffffffffffffffffffffffffffff166118d3610e0a565b73ffffffffffffffffffffffffffffffffffffffff16146040805190810160405280601f81526020017f45564d52554e5f50524f5445435445445f53544154455f4d4f44494649454400815250901515611989576040517f08c379a00000000000000000000000000000000000000000000000000000000081526004018080602001828103825283818151815260200191508051906020019080838360008381101561071c578181015183820152602001610704565b5080611993610615565b60408051808201909152601f81527f45564d52554e5f50524f5445435445445f53544154455f4d4f4449464945440060208201529114611a2f576040517f08c379a00000000000000000000000000000000000000000000000000000000081526004018080602001828103825283818151815260200191508051906020019080838360008381101561071c578181015183820152602001610704565b505050505050509392505050565b6000806000806040516020818751602089018a5afa92506000831115611a6257805191505b50909590945092505050565b6000806040516020818551602087016000895af16000811115611ab2573d8015611a9f5760208114611aa857611ab0565b60019350611ab0565b600183511493505b505b5090949350505050565b90555600a165627a7a723058205ce4207e117eb5fe72dcd58e0d93ca2f1fa93e6658125fc818f0ef1381348d540029ebb05b386a8d34882b8711d156f463690983dc47815980fb82aeeff1aa43579e",
  "devdoc": {
    "methods": {
      "allowRecoverability(address)": {
        "details": "By default deriving from AragonApp makes it recoverable",
        "params": {
          "token": "Token address that would be recovered"
        },
        "return": "bool whether the app allows the recovery"
      },
      "canPerform(address,bytes32,uint256[])": {
        "details": "Check whether an action can be performed by a sender for a particular role on this app",
        "params": {
          "_params": "Permission params for the role",
          "_role": "Role on this app",
          "_sender": "Sender of the call"
        },
        "return": "Boolean indicating whether the sender has the permissions to perform the action.        Always returns false if the app hasn't been initialized yet."
      },
      "forward(bytes)": {
        "details": "IForwarder interface conformance. Forwards any token holder action.",
        "params": {
          "_evmScript": "Script being executed"
        }
      },
      "getInitializationBlock()": {
        "return": "Block number in which the contract was initialized"
      },
      "getRecoveryVault()": {
        "details": "Get the recovery vault for the app",
        "return": "Recovery vault address for the app"
      },
      "hasInitialized()": {
        "return": "Whether the contract has been initialized by the time of the current block"
      },
      "initialize(address)": {
        "params": {
          "_token": "IVotingToken address for the managed token"
        }
      },
      "transferToVault(address)": {
        "params": {
          "_token": "Token balance to be sent to recovery vault."
        }
      }
    }
  },
  "userdoc": {
    "methods": {
      "forward(bytes)": {
        "notice": "Execute desired action as a token holder"
      },
      "initialize(address)": {
        "notice": "Initialize VotesForwarder for `_token.symbol(): string`"
      },
      "transferToVault(address)": {
        "notice": "Send funds to recovery Vault. This contract should never receive funds,        but in case it does, this function allows one to recover them."
      }
    }
  }
}